{
  "contractName": "ZkSwap",
  "abi": [
    {
      "inputs": [
        {
          "internalType": "address",
          "name": "ercAddr",
          "type": "address"
        }
      ],
      "stateMutability": "nonpayable",
      "type": "constructor"
    },
    {
      "anonymous": false,
      "inputs": [
        {
          "indexed": false,
          "internalType": "uint256",
          "name": "amount",
          "type": "uint256"
        }
      ],
      "name": "Debug",
      "type": "event"
    },
    {
      "anonymous": false,
      "inputs": [
        {
          "indexed": false,
          "internalType": "address",
          "name": "_from",
          "type": "address"
        },
        {
          "indexed": false,
          "internalType": "uint256",
          "name": "etherAmount",
          "type": "uint256"
        },
        {
          "indexed": false,
          "internalType": "uint256",
          "name": "batAmount",
          "type": "uint256"
        }
      ],
      "name": "Deposit",
      "type": "event"
    },
    {
      "anonymous": false,
      "inputs": [
        {
          "indexed": false,
          "internalType": "address",
          "name": "_from",
          "type": "address"
        }
      ],
      "name": "Registered",
      "type": "event"
    },
    {
      "inputs": [],
      "name": "balances",
      "outputs": [
        {
          "internalType": "bytes32",
          "name": "",
          "type": "bytes32"
        }
      ],
      "stateMutability": "view",
      "type": "function",
      "constant": true
    },
    {
      "inputs": [],
      "name": "erc20",
      "outputs": [
        {
          "internalType": "address",
          "name": "",
          "type": "address"
        }
      ],
      "stateMutability": "view",
      "type": "function",
      "constant": true
    },
    {
      "inputs": [],
      "name": "users",
      "outputs": [
        {
          "internalType": "bytes32",
          "name": "",
          "type": "bytes32"
        }
      ],
      "stateMutability": "view",
      "type": "function",
      "constant": true
    },
    {
      "inputs": [
        {
          "internalType": "bytes32[]",
          "name": "proof",
          "type": "bytes32[]"
        },
        {
          "internalType": "bytes32",
          "name": "oldLeaf",
          "type": "bytes32"
        }
      ],
      "name": "register",
      "outputs": [],
      "stateMutability": "nonpayable",
      "type": "function"
    },
    {
      "inputs": [],
      "name": "getSupply",
      "outputs": [],
      "stateMutability": "nonpayable",
      "type": "function"
    },
    {
      "inputs": [
        {
          "internalType": "bytes32[]",
          "name": "userProof",
          "type": "bytes32[]"
        },
        {
          "internalType": "bytes32[]",
          "name": "balanceProof",
          "type": "bytes32[]"
        },
        {
          "internalType": "uint256",
          "name": "ethAmount",
          "type": "uint256"
        },
        {
          "internalType": "uint256",
          "name": "batAmount",
          "type": "uint256"
        },
        {
          "internalType": "uint256",
          "name": "nonce",
          "type": "uint256"
        }
      ],
      "name": "depositEth",
      "outputs": [],
      "stateMutability": "payable",
      "type": "function",
      "payable": true
    },
    {
      "inputs": [
        {
          "internalType": "bytes32[]",
          "name": "userProof",
          "type": "bytes32[]"
        },
        {
          "internalType": "bytes32[]",
          "name": "balanceProof",
          "type": "bytes32[]"
        },
        {
          "internalType": "uint256",
          "name": "ethAmount",
          "type": "uint256"
        },
        {
          "internalType": "uint256",
          "name": "batAmount",
          "type": "uint256"
        },
        {
          "internalType": "uint256",
          "name": "nonce",
          "type": "uint256"
        }
      ],
      "name": "depositERC20",
      "outputs": [],
      "stateMutability": "nonpayable",
      "type": "function"
    },
    {
      "inputs": [
        {
          "internalType": "bytes32[]",
          "name": "userProof",
          "type": "bytes32[]"
        },
        {
          "internalType": "bytes32[]",
          "name": "balanceProof",
          "type": "bytes32[]"
        },
        {
          "internalType": "uint256",
          "name": "ethAmount",
          "type": "uint256"
        },
        {
          "internalType": "uint256",
          "name": "batAmount",
          "type": "uint256"
        },
        {
          "internalType": "uint256",
          "name": "nonce",
          "type": "uint256"
        },
        {
          "internalType": "uint256",
          "name": "withdrawAmount",
          "type": "uint256"
        }
      ],
      "name": "withdraw",
      "outputs": [],
      "stateMutability": "nonpayable",
      "type": "function"
    }
  ],
  "bytecode": "0x60806040527fe3d4879dd9a5530315210a62ccfcb361e4d19093e27212732cbb24d43774df2a60001b6000557f21ddb9a356815c3fac1026b6dec5df3124afbadb485c9ba5a3e3398a04b7ba8560001b60015534801561005e57600080fd5b506040516110f23803806110f28339818101604052602081101561008157600080fd5b810190808051906020019092919050505080600260006101000a81548173ffffffffffffffffffffffffffffffffffffffff021916908373ffffffffffffffffffffffffffffffffffffffff1602179055505061100f806100e36000396000f3fe60806040526004361061007b5760003560e01c80638943ca381161004e5780638943ca3814610290578063a0bdcbbf1461035f578063eb494f50146104e0578063f20202751461064a5761007b565b80634f6867de146100805780636c9c2faf146101f7578063785e9e861461020e5780637bb98a6814610265575b600080fd5b34801561008c57600080fd5b506101f5600480360360a08110156100a357600080fd5b81019080803590602001906401000000008111156100c057600080fd5b8201836020820111156100d257600080fd5b803590602001918460208302840111640100000000831117156100f457600080fd5b919080806020026020016040519081016040528093929190818152602001838360200280828437600081840152601f19601f8201169050808301925050505050505091929192908035906020019064010000000081111561015457600080fd5b82018360208201111561016657600080fd5b8035906020019184602083028401116401000000008311171561018857600080fd5b919080806020026020016040519081016040528093929190818152602001838360200280828437600081840152601f19601f820116905080830192505050505050509192919290803590602001909291908035906020019092919080359060200190929190505050610675565b005b34801561020357600080fd5b5061020c610737565b005b34801561021a57600080fd5b50610223610812565b604051808273ffffffffffffffffffffffffffffffffffffffff1673ffffffffffffffffffffffffffffffffffffffff16815260200191505060405180910390f35b34801561027157600080fd5b5061027a610838565b6040518082815260200191505060405180910390f35b34801561029c57600080fd5b5061035d600480360360408110156102b357600080fd5b81019080803590602001906401000000008111156102d057600080fd5b8201836020820111156102e257600080fd5b8035906020019184602083028401116401000000008311171561030457600080fd5b919080806020026020016040519081016040528093929190818152602001838360200280828437600081840152601f19601f8201169050808301925050505050505091929192908035906020019092919050505061083e565b005b34801561036b57600080fd5b506104de600480360360c081101561038257600080fd5b810190808035906020019064010000000081111561039f57600080fd5b8201836020820111156103b157600080fd5b803590602001918460208302840111640100000000831117156103d357600080fd5b919080806020026020016040519081016040528093929190818152602001838360200280828437600081840152601f19601f8201169050808301925050505050505091929192908035906020019064010000000081111561043357600080fd5b82018360208201111561044557600080fd5b8035906020019184602083028401116401000000008311171561046757600080fd5b919080806020026020016040519081016040528093929190818152602001838360200280828437600081840152601f19601f8201169050808301925050505050505091929192908035906020019092919080359060200190929190803590602001909291908035906020019092919050505061092a565b005b610648600480360360a08110156104f657600080fd5b810190808035906020019064010000000081111561051357600080fd5b82018360208201111561052557600080fd5b8035906020019184602083028401116401000000008311171561054757600080fd5b919080806020026020016040519081016040528093929190818152602001838360200280828437600081840152601f19601f820116905080830192505050505050509192919290803590602001906401000000008111156105a757600080fd5b8201836020820111156105b957600080fd5b803590602001918460208302840111640100000000831117156105db57600080fd5b919080806020026020016040519081016040528093929190818152602001838360200280828437600081840152601f19601f820116905080830192505050505050509192919290803590602001909291908035906020019092919080359060200190929190505050610b8e565b005b34801561065657600080fd5b5061065f610d07565b6040518082815260200191505060405180910390f35b84848484846106d98533604051602001808273ffffffffffffffffffffffffffffffffffffffff1673ffffffffffffffffffffffffffffffffffffffff1660601b815260140191505060405160208183030381529060405280519060200120610d0d565b6106e257600080fd5b6107228484848460405160200180848152602001838152602001828152602001935050505060405160208183030381529060405280519060200120610d24565b61072b57600080fd5b50505050505050505050565b7f8a36f5a234186d446e36a7df36ace663a05a580d9bea2dd899c6dd76a075d5fa600260009054906101000a900473ffffffffffffffffffffffffffffffffffffffff1673ffffffffffffffffffffffffffffffffffffffff166318160ddd6040518163ffffffff1660e01b815260040160206040518083038186803b1580156107c057600080fd5b505afa1580156107d4573d6000803e3d6000fd5b505050506040513d60208110156107ea57600080fd5b81019080805190602001909291905050506040518082815260200191505060405180910390a1565b600260009054906101000a900473ffffffffffffffffffffffffffffffffffffffff1681565b60015481565b6108488282610d3c565b61085157600080fd5b61085b8282610d0d565b61086457600080fd5b6108c38233604051602001808273ffffffffffffffffffffffffffffffffffffffff1673ffffffffffffffffffffffffffffffffffffffff1660601b815260140191505060405160208183030381529060405280519060200120610efc565b7f2d3734a8e47ac8316e500ac231c90a6e1848ca2285f40d07eaa52005e4b3a0e933604051808273ffffffffffffffffffffffffffffffffffffffff1673ffffffffffffffffffffffffffffffffffffffff16815260200191505060405180910390a15050565b858585858561098e8533604051602001808273ffffffffffffffffffffffffffffffffffffffff1673ffffffffffffffffffffffffffffffffffffffff1660601b815260140191505060405160208183030381529060405280519060200120610d0d565b61099757600080fd5b6109d78484848460405160200180848152602001838152602001828152602001935050505060405160208183030381529060405280519060200120610d24565b6109e057600080fd5b858910156109ed57600080fd5b610a2f8a878b038a8a60405160200180848152602001838152602001828152602001935050505060405160208183030381529060405280519060200120610f10565b7f90890809c654f11d6e72a28fa60149770a0d11ec6c92319d6ceb2bb0a4ea1a1533878b038a604051808473ffffffffffffffffffffffffffffffffffffffff1673ffffffffffffffffffffffffffffffffffffffff168152602001838152602001828152602001935050505060405180910390a160003373ffffffffffffffffffffffffffffffffffffffff168760405180600001905060006040518083038185875af1925050503d8060008114610b04576040519150601f19603f3d011682016040523d82523d6000602084013e610b09565b606091505b5050905080610b80576040517f08c379a00000000000000000000000000000000000000000000000000000000081526004018080602001828103825260108152602001807f5472616e73666572206661696c65642e0000000000000000000000000000000081525060200191505060405180910390fd5b505050505050505050505050565b8484848484610bf28533604051602001808273ffffffffffffffffffffffffffffffffffffffff1673ffffffffffffffffffffffffffffffffffffffff1660601b815260140191505060405160208183030381529060405280519060200120610d0d565b610bfb57600080fd5b610c3b8484848460405160200180848152602001838152602001828152602001935050505060405160208183030381529060405280519060200120610d24565b610c4457600080fd5b610c8689348a01898960405160200180848152602001838152602001828152602001935050505060405160208183030381529060405280519060200120610f10565b7f90890809c654f11d6e72a28fa60149770a0d11ec6c92319d6ceb2bb0a4ea1a1533348a0189604051808473ffffffffffffffffffffffffffffffffffffffff1673ffffffffffffffffffffffffffffffffffffffff168152602001838152602001828152602001935050505060405180910390a150505050505050505050565b60005481565b60008054610d1b8484610f24565b14905092915050565b6000600154610d338484610f24565b14905092915050565b6000807f57570dbcb8388f7a4cb09bf05bcb6c44f46b11a956b25a1b6d50a2d27f2ee71e60001b90506000604051602001808273ffffffffffffffffffffffffffffffffffffffff1673ffffffffffffffffffffffffffffffffffffffff1660601b8152601401915050604051602081830303815290604052805190602001208314610dc757600080fd5b6000604051602001808273ffffffffffffffffffffffffffffffffffffffff1673ffffffffffffffffffffffffffffffffffffffff1660601b81526014019150506040516020818303038152906040528051906020012084600081518110610e2b57fe5b602002602001015114158015610e5457508084600181518110610e4a57fe5b6020026020010151145b80610ee857506000604051602001808273ffffffffffffffffffffffffffffffffffffffff1673ffffffffffffffffffffffffffffffffffffffff1660601b81526014019150506040516020818303038152906040528051906020012084600081518110610ebe57fe5b6020026020010151148015610ee757508084600181518110610edc57fe5b602002602001015114155b5b610ef157600080fd5b600191505092915050565b610f068282610f24565b6000819055505050565b610f1a8282610f24565b6001819055505050565b60008082905060008090505b8451811015610fce576000858281518110610f4757fe5b60200260200101519050808311610f8e5782816040516020018083815260200182815260200192505050604051602081830303815290604052805190602001209250610fc0565b808360405160200180838152602001828152602001925050506040516020818303038152906040528051906020012092505b508080600101915050610f30565b50809150509291505056fea2646970667358221220614e22dbfa886b2dc074fde33cc7dc422d756f5b2b46ec992ec9a2ba2af1ffcb64736f6c63430006020033",
  "source": "// SPDX-License-Identifier: MIT\npragma solidity ^0.6.0;\n\nimport \"./openzeppelin/token/ERC20/IERC20.sol\";\n\ncontract ZkSwap {\n\n\tbytes32 public users = 0xe3d4879dd9a5530315210a62ccfcb361e4d19093e27212732cbb24d43774df2a; // initial root with 1 set account and 3 zero accounts\n\tbytes32 public balances = 0x21ddb9a356815c3fac1026b6dec5df3124afbadb485c9ba5a3e3398a04b7ba85;\n\taddress public erc20;\n\tenum CurrecyType { Ether, Bat }\n\n\tmodifier canUpdateBalance(bytes32[] memory userProof, bytes32[] memory balanceProof, uint ethAmount, uint batAmount, uint nonce)\n\t{\n\t\trequire(verifyUserMerkle(userProof, keccak256(abi.encodePacked(msg.sender)))); // makes sure sender is registered\n \t\trequire(verifyBalanceMerkle(balanceProof, keccak256(abi.encodePacked(ethAmount, batAmount, nonce)))); // checks if passed balance amount is correct\n\t\t_;\n\t}\n\n\tconstructor(address ercAddr)\n        public\n    {\n\t\terc20 = ercAddr;\n\t}\n\n\tevent Registered(address _from);\n\tevent Deposit(address _from, uint etherAmount, uint batAmount);\n\t\n    event Debug(uint amount);\n\n\tfunction register(bytes32[] memory proof, bytes32 oldLeaf)\n\t \tpublic \n\t{\n\t\trequire(checkInputs(proof, oldLeaf));\n\t\trequire(verifyUserMerkle(proof, oldLeaf));\n\t\tupdateUserMerkle(proof, keccak256(abi.encodePacked(msg.sender)));\n\t\temit Registered(msg.sender);\n\t}\n\t\n\tfunction getSupply()\n\t    public\n\t{\n\t    emit Debug(IERC20(erc20).totalSupply());\n\t}\n\t\n\tfunction depositEth(bytes32[] memory userProof, bytes32[] memory balanceProof, uint ethAmount, uint batAmount, uint nonce)\n\t\tpublic\n\t\tpayable\n\t\tcanUpdateBalance(userProof, balanceProof, ethAmount, batAmount, nonce)\n\t{\n\t\tupdateBalanceMerkle(balanceProof, keccak256(abi.encodePacked(ethAmount + msg.value, batAmount, nonce)));\n\t\temit Deposit(msg.sender, ethAmount + msg.value, batAmount);\n\t}\n\n\tfunction depositERC20(bytes32[] memory userProof, bytes32[] memory balanceProof, uint ethAmount, uint batAmount, uint nonce)\n\t\tpublic\n\t\tcanUpdateBalance(userProof, balanceProof, ethAmount, batAmount, nonce)\n\t{\n\n\t}\n\n\tfunction withdraw(bytes32[] memory userProof, bytes32[] memory balanceProof, uint ethAmount, uint batAmount, uint nonce, uint withdrawAmount)\n\t\tpublic\n\t\tcanUpdateBalance(userProof, balanceProof, ethAmount, batAmount, nonce)\n\t{\n\t\t// if(type == uint8(CurrencyType.Ether)){\n\t\t\trequire(ethAmount >= withdrawAmount);\n\t\t\tupdateBalanceMerkle(balanceProof, keccak256(abi.encodePacked(ethAmount - withdrawAmount, batAmount, nonce)));\n\t\t\temit Deposit(msg.sender, ethAmount - withdrawAmount, batAmount);\n\t\t\t(bool success, ) = msg.sender.call.value(withdrawAmount)(\"\");\n        require(success, \"Transfer failed.\");\n\t\t// } else if(type == uint8(CurrecyType.Bat)){\n\t\t// \trequire(batAmount >= withdrawAmount);\n\t\t// }\n\n\t\t\n\t}\n\n\n\tfunction verifyUserMerkle(bytes32[] memory proof, bytes32 leaf) \n\t\tinternal \n\t\tview\n\t\treturns (bool) \n\t{\n        return computeMerkle(proof, leaf) == users;\n    }\n\n\tfunction updateUserMerkle(bytes32[] memory proof, bytes32 leaf)\n\t\tinternal\n\t{\n\t\tusers = computeMerkle(proof, leaf);\n\t}\n\n\tfunction verifyBalanceMerkle(bytes32[] memory proof, bytes32 leaf) \n\t\tinternal \n\t\tview\n\t\treturns (bool) \n\t{\n        return computeMerkle(proof, leaf) == balances;\n    }\n\n\tfunction updateBalanceMerkle(bytes32[] memory proof, bytes32 leaf)\n\t\tinternal\n\t{\n\n\t\tbalances = computeMerkle(proof, leaf);\n\t}\n\n\tfunction computeMerkle(bytes32[] memory proof, bytes32 leaf) \n\t\tinternal\n\t\tpure \n\t\treturns (bytes32) \n\t{\n\t\tbytes32 computedHash = leaf;\n\n        for (uint256 i = 0; i < proof.length; i++) {\n            bytes32 proofElement = proof[i];\n\n            if (computedHash <= proofElement) {\n                // Hash(current computed hash + current element of the proof)\n                computedHash = keccak256(abi.encodePacked(computedHash, proofElement));\n            } else {\n                // Hash(current element of the proof + current computed hash)\n                computedHash = keccak256(abi.encodePacked(proofElement, computedHash));\n            }\n        }\n\t\treturn computedHash;\n\t}\n\n\tfunction checkInputs(bytes32[] memory proof, bytes32 leaf)\n\t\tinternal\n\t\tpure\n\t\treturns (bool)\n\t{\n\t\tbytes32 emptyLeafPairHash = 0x57570dbcb8388f7a4cb09bf05bcb6c44f46b11a956b25a1b6d50a2d27f2ee71e;\n\t\trequire(leaf == keccak256(abi.encodePacked(address(0x0)))); // makes sure the oldLeaf is empty => Not overwriting another account\n\t\trequire(\n\t\t\t(proof[0] != keccak256(abi.encodePacked(address(0x0))) && proof[1] == emptyLeafPairHash) || // if the leaf pair is not empty, the following pair must be a emptyLeafPairHash\n\t\t\t(proof[0] == keccak256(abi.encodePacked(address(0x0))) && proof[1] != emptyLeafPairHash) // if the leafPait is empty, the next hash pait cant be empty\n\t\t);\n\t\treturn true;\n\t}\n}\n",
  "sourcePath": "/Users/paul/Documents/projects/bachelor/implementation/contracts/contracts/ZKSwap.sol",
  "compiler": {
    "name": "solc",
    "version": "0.6.2+commit.bacdbe57.Emscripten.clang"
  },
  "schemaVersion": "3.2.0",
  "updatedAt": "2020-11-19T12:47:26.788Z",
  "networkType": "ethereum",
  "devdoc": {
    "methods": {}
  },
  "userdoc": {
    "methods": {}
  }
}