{
  "contractName": "ZkSwap",
  "abi": [
    {
      "inputs": [],
      "stateMutability": "nonpayable",
      "type": "constructor"
    },
    {
      "anonymous": false,
      "inputs": [
        {
          "indexed": false,
          "internalType": "address",
          "name": "_from",
          "type": "address"
        },
        {
          "indexed": false,
          "internalType": "uint256",
          "name": "amount",
          "type": "uint256"
        }
      ],
      "name": "Deposit",
      "type": "event"
    },
    {
      "anonymous": false,
      "inputs": [
        {
          "indexed": false,
          "internalType": "address",
          "name": "_from",
          "type": "address"
        }
      ],
      "name": "Registered",
      "type": "event"
    },
    {
      "inputs": [],
      "name": "balances",
      "outputs": [
        {
          "internalType": "bytes32",
          "name": "",
          "type": "bytes32"
        }
      ],
      "stateMutability": "view",
      "type": "function",
      "constant": true
    },
    {
      "inputs": [],
      "name": "users",
      "outputs": [
        {
          "internalType": "bytes32",
          "name": "",
          "type": "bytes32"
        }
      ],
      "stateMutability": "view",
      "type": "function",
      "constant": true
    },
    {
      "inputs": [
        {
          "internalType": "bytes32[]",
          "name": "proof",
          "type": "bytes32[]"
        },
        {
          "internalType": "bytes32",
          "name": "oldLeaf",
          "type": "bytes32"
        }
      ],
      "name": "register",
      "outputs": [],
      "stateMutability": "nonpayable",
      "type": "function"
    },
    {
      "inputs": [
        {
          "internalType": "bytes32[]",
          "name": "userProof",
          "type": "bytes32[]"
        },
        {
          "internalType": "bytes32[]",
          "name": "balanceProof",
          "type": "bytes32[]"
        },
        {
          "internalType": "uint256",
          "name": "amount",
          "type": "uint256"
        },
        {
          "internalType": "uint256",
          "name": "nonce",
          "type": "uint256"
        }
      ],
      "name": "deposit",
      "outputs": [],
      "stateMutability": "payable",
      "type": "function",
      "payable": true
    },
    {
      "inputs": [
        {
          "internalType": "bytes32[]",
          "name": "userProof",
          "type": "bytes32[]"
        },
        {
          "internalType": "bytes32[]",
          "name": "balanceProof",
          "type": "bytes32[]"
        },
        {
          "internalType": "uint256",
          "name": "amount",
          "type": "uint256"
        },
        {
          "internalType": "uint256",
          "name": "nonce",
          "type": "uint256"
        },
        {
          "internalType": "uint256",
          "name": "withdrawAmount",
          "type": "uint256"
        }
      ],
      "name": "withdraw",
      "outputs": [],
      "stateMutability": "payable",
      "type": "function",
      "payable": true
    }
  ],
  "bytecode": "0x60806040527fe3d4879dd9a5530315210a62ccfcb361e4d19093e27212732cbb24d43774df2a60001b6000557f21ddb9a356815c3fac1026b6dec5df3124afbadb485c9ba5a3e3398a04b7ba8560001b60015534801561005e57600080fd5b50610bcf8061006e6000396000f3fe60806040526004361061004a5760003560e01c8063056cd97d1461004f57806316776a4e146101b95780637bb98a68146103195780638943ca3814610344578063f202027514610413575b600080fd5b6101b7600480360360a081101561006557600080fd5b810190808035906020019064010000000081111561008257600080fd5b82018360208201111561009457600080fd5b803590602001918460208302840111640100000000831117156100b657600080fd5b919080806020026020016040519081016040528093929190818152602001838360200280828437600081840152601f19601f8201169050808301925050505050505091929192908035906020019064010000000081111561011657600080fd5b82018360208201111561012857600080fd5b8035906020019184602083028401116401000000008311171561014a57600080fd5b919080806020026020016040519081016040528093929190818152602001838360200280828437600081840152601f19601f82011690508083019250505050505050919291929080359060200190929190803590602001909291908035906020019092919050505061043e565b005b610317600480360360808110156101cf57600080fd5b81019080803590602001906401000000008111156101ec57600080fd5b8201836020820111156101fe57600080fd5b8035906020019184602083028401116401000000008311171561022057600080fd5b919080806020026020016040519081016040528093929190818152602001838360200280828437600081840152601f19601f8201169050808301925050505050505091929192908035906020019064010000000081111561028057600080fd5b82018360208201111561029257600080fd5b803590602001918460208302840111640100000000831117156102b457600080fd5b919080806020026020016040519081016040528093929190818152602001838360200280828437600081840152601f19601f820116905080830192505050505050509192919290803590602001909291908035906020019092919050505061067f565b005b34801561032557600080fd5b5061032e6107d5565b6040518082815260200191505060405180910390f35b34801561035057600080fd5b506104116004803603604081101561036757600080fd5b810190808035906020019064010000000081111561038457600080fd5b82018360208201111561039657600080fd5b803590602001918460208302840111640100000000831117156103b857600080fd5b919080806020026020016040519081016040528093929190818152602001838360200280828437600081840152601f19601f820116905080830192505050505050509192919290803590602001909291905050506107db565b005b34801561041f57600080fd5b506104286108c7565b6040518082815260200191505060405180910390f35b61049d8533604051602001808273ffffffffffffffffffffffffffffffffffffffff1673ffffffffffffffffffffffffffffffffffffffff1660601b8152601401915050604051602081830303815290604052805190602001206108cd565b6104a657600080fd5b6104de8484846040516020018083815260200182815260200192505050604051602081830303815290604052805190602001206108e4565b6104e757600080fd5b808310156104f457600080fd5b60003373ffffffffffffffffffffffffffffffffffffffff168260405180600001905060006040518083038185875af1925050503d8060008114610554576040519150601f19603f3d011682016040523d82523d6000602084013e610559565b606091505b50509050806105d0576040517f08c379a00000000000000000000000000000000000000000000000000000000081526004018080602001828103825260108152602001807f5472616e73666572206661696c65642e0000000000000000000000000000000081525060200191505060405180910390fd5b61060a85838603856040516020018083815260200182815260200192505050604051602081830303815290604052805190602001206108fc565b7fe1fffcc4923d04b559f4d29a8bfc6cda04eb5b0d3c460751c2402c5c5cc9109c33838603604051808373ffffffffffffffffffffffffffffffffffffffff1673ffffffffffffffffffffffffffffffffffffffff1681526020018281526020019250505060405180910390a1505050505050565b6106de8433604051602001808273ffffffffffffffffffffffffffffffffffffffff1673ffffffffffffffffffffffffffffffffffffffff1660601b8152601401915050604051602081830303815290604052805190602001206108cd565b6106e757600080fd5b61071f8383836040516020018083815260200182815260200192505050604051602081830303815290604052805190602001206108e4565b61072857600080fd5b61076283348401836040516020018083815260200182815260200192505050604051602081830303815290604052805190602001206108fc565b7fe1fffcc4923d04b559f4d29a8bfc6cda04eb5b0d3c460751c2402c5c5cc9109c33348401604051808373ffffffffffffffffffffffffffffffffffffffff1673ffffffffffffffffffffffffffffffffffffffff1681526020018281526020019250505060405180910390a150505050565b60015481565b6107e58282610910565b6107ee57600080fd5b6107f882826108cd565b61080157600080fd5b6108608233604051602001808273ffffffffffffffffffffffffffffffffffffffff1673ffffffffffffffffffffffffffffffffffffffff1660601b815260140191505060405160208183030381529060405280519060200120610ad0565b7f2d3734a8e47ac8316e500ac231c90a6e1848ca2285f40d07eaa52005e4b3a0e933604051808273ffffffffffffffffffffffffffffffffffffffff1673ffffffffffffffffffffffffffffffffffffffff16815260200191505060405180910390a15050565b60005481565b600080546108db8484610ae4565b14905092915050565b60006001546108f38484610ae4565b14905092915050565b6109068282610ae4565b6001819055505050565b6000807f57570dbcb8388f7a4cb09bf05bcb6c44f46b11a956b25a1b6d50a2d27f2ee71e60001b90506000604051602001808273ffffffffffffffffffffffffffffffffffffffff1673ffffffffffffffffffffffffffffffffffffffff1660601b815260140191505060405160208183030381529060405280519060200120831461099b57600080fd5b6000604051602001808273ffffffffffffffffffffffffffffffffffffffff1673ffffffffffffffffffffffffffffffffffffffff1660601b815260140191505060405160208183030381529060405280519060200120846000815181106109ff57fe5b602002602001015114158015610a2857508084600181518110610a1e57fe5b6020026020010151145b80610abc57506000604051602001808273ffffffffffffffffffffffffffffffffffffffff1673ffffffffffffffffffffffffffffffffffffffff1660601b81526014019150506040516020818303038152906040528051906020012084600081518110610a9257fe5b6020026020010151148015610abb57508084600181518110610ab057fe5b602002602001015114155b5b610ac557600080fd5b600191505092915050565b610ada8282610ae4565b6000819055505050565b60008082905060008090505b8451811015610b8e576000858281518110610b0757fe5b60200260200101519050808311610b4e5782816040516020018083815260200182815260200192505050604051602081830303815290604052805190602001209250610b80565b808360405160200180838152602001828152602001925050506040516020818303038152906040528051906020012092505b508080600101915050610af0565b50809150509291505056fea2646970667358221220b88e2f008d7eb6d872e783891c849c3fa5de8a3511d74a8f7be0f7f382f0c11764736f6c63430006000033",
  "source": "// SPDX-License-Identifier: MIT\npragma solidity ^0.6.0;\n\ncontract ZkSwap {\n\n\tbytes32 public users = 0xe3d4879dd9a5530315210a62ccfcb361e4d19093e27212732cbb24d43774df2a; // initial root with 1 set account and 3 zero accounts\n\tbytes32 public balances = 0x21ddb9a356815c3fac1026b6dec5df3124afbadb485c9ba5a3e3398a04b7ba85;\n\tconstructor()\n        public\n    {}\n\n\tevent Registered(address _from);\n\tevent Deposit(address _from, uint amount);\n\n\tfunction register(bytes32[] memory proof, bytes32 oldLeaf)\n\t \tpublic \n\t{\n\t\trequire(checkInputs(proof, oldLeaf));\n\t\trequire(verifyUserMerkle(proof, oldLeaf));\n\t\tupdateUserMerkle(proof, keccak256(abi.encodePacked(msg.sender)));\n\t\temit Registered(msg.sender);\n\t}\n\t\n\tfunction deposit(bytes32[] memory userProof, bytes32[] memory balanceProof, uint amount, uint nonce)\n\t\tpublic\n\t\tpayable\n\t{\n\t\trequire(verifyUserMerkle(userProof, keccak256(abi.encodePacked(msg.sender)))); // makes sure user is registered\n \t\trequire(verifyBalanceMerkle(balanceProof, keccak256(abi.encodePacked(amount, nonce)))); // checks if passed balance amount is correct\n\t\tupdateBalanceMerkle(balanceProof, keccak256(abi.encodePacked(amount + msg.value, nonce)));\n\t\temit Deposit(msg.sender, amount + msg.value);\n\t}\n\n\tfunction withdraw(bytes32[] memory userProof, bytes32[] memory balanceProof, uint amount, uint nonce, uint withdrawAmount)\n\t\tpublic\n\t\tpayable\n\t{\n\t\trequire(verifyUserMerkle(userProof, keccak256(abi.encodePacked(msg.sender)))); // makes sure user is registered\n \t\trequire(verifyBalanceMerkle(balanceProof, keccak256(abi.encodePacked(amount, nonce)))); // checks if passed balance amount is correct\n\t\trequire(amount >= withdrawAmount);\n\t\t(bool success, ) = msg.sender.call.value(withdrawAmount)(\"\");\n        require(success, \"Transfer failed.\");\n\t\tupdateBalanceMerkle(balanceProof, keccak256(abi.encodePacked(amount - withdrawAmount, nonce)));\n\t\temit Deposit(msg.sender, amount - withdrawAmount);\n\t}\n\n\tfunction verifyUserMerkle(bytes32[] memory proof, bytes32 leaf) \n\t\tinternal \n\t\tview\n\t\treturns (bool) \n\t{\n        return computeMerkle(proof, leaf) == users;\n    }\n\n\tfunction updateUserMerkle(bytes32[] memory proof, bytes32 leaf)\n\t\tinternal\n\t{\n\t\tusers = computeMerkle(proof, leaf);\n\t}\n\n\tfunction verifyBalanceMerkle(bytes32[] memory proof, bytes32 leaf) \n\t\tinternal \n\t\tview\n\t\treturns (bool) \n\t{\n        return computeMerkle(proof, leaf) == balances;\n    }\n\n\tfunction updateBalanceMerkle(bytes32[] memory proof, bytes32 leaf)\n\t\tinternal\n\t{\n\n\t\tbalances = computeMerkle(proof, leaf);\n\t}\n\n\tfunction computeMerkle(bytes32[] memory proof, bytes32 leaf) \n\t\tinternal\n\t\tpure \n\t\treturns (bytes32) \n\t{\n\t\tbytes32 computedHash = leaf;\n\n        for (uint256 i = 0; i < proof.length; i++) {\n            bytes32 proofElement = proof[i];\n\n            if (computedHash <= proofElement) {\n                // Hash(current computed hash + current element of the proof)\n                computedHash = keccak256(abi.encodePacked(computedHash, proofElement));\n            } else {\n                // Hash(current element of the proof + current computed hash)\n                computedHash = keccak256(abi.encodePacked(proofElement, computedHash));\n            }\n        }\n\t\treturn computedHash;\n\t}\n\n\tfunction checkInputs(bytes32[] memory proof, bytes32 leaf)\n\t\tinternal\n\t\tpure\n\t\treturns (bool)\n\t{\n\t\tbytes32 emptyLeafPairHash = 0x57570dbcb8388f7a4cb09bf05bcb6c44f46b11a956b25a1b6d50a2d27f2ee71e;\n\t\trequire(leaf == keccak256(abi.encodePacked(address(0x0)))); // makes sure the oldLeaf is empty => Not overwriting another account\n\t\trequire(\n\t\t\t(proof[0] != keccak256(abi.encodePacked(address(0x0))) && proof[1] == emptyLeafPairHash) || // if the leaf pair is not empty, the following pair must be a emptyLeafPairHash\n\t\t\t(proof[0] == keccak256(abi.encodePacked(address(0x0))) && proof[1] != emptyLeafPairHash) // if the leafPait is empty, the next hash pait cant be empty\n\t\t);\n\t\treturn true;\n\t}\n}\n",
  "sourcePath": "/Users/paul/Documents/projects/bachelor/implementation/contracts/contracts/ZKSwap.sol",
  "compiler": {
    "name": "solc",
    "version": "0.6.0+commit.26b70077.Emscripten.clang"
  },
  "schemaVersion": "3.2.0",
  "updatedAt": "2020-11-12T14:38:03.310Z",
  "networkType": "ethereum",
  "devdoc": {
    "methods": {}
  },
  "userdoc": {
    "methods": {}
  }
}