{
  "contractName": "ZkSwap",
  "abi": [
    {
      "inputs": [],
      "stateMutability": "nonpayable",
      "type": "constructor"
    },
    {
      "anonymous": false,
      "inputs": [
        {
          "indexed": false,
          "internalType": "address",
          "name": "_from",
          "type": "address"
        },
        {
          "indexed": false,
          "internalType": "uint256",
          "name": "amount",
          "type": "uint256"
        }
      ],
      "name": "Deposit",
      "type": "event"
    },
    {
      "anonymous": false,
      "inputs": [
        {
          "indexed": false,
          "internalType": "address",
          "name": "_from",
          "type": "address"
        }
      ],
      "name": "Registered",
      "type": "event"
    },
    {
      "inputs": [],
      "name": "balances",
      "outputs": [
        {
          "internalType": "bytes32",
          "name": "",
          "type": "bytes32"
        }
      ],
      "stateMutability": "view",
      "type": "function",
      "constant": true
    },
    {
      "inputs": [],
      "name": "users",
      "outputs": [
        {
          "internalType": "bytes32",
          "name": "",
          "type": "bytes32"
        }
      ],
      "stateMutability": "view",
      "type": "function",
      "constant": true
    },
    {
      "inputs": [
        {
          "internalType": "bytes32[]",
          "name": "proof",
          "type": "bytes32[]"
        },
        {
          "internalType": "bytes32",
          "name": "oldLeaf",
          "type": "bytes32"
        }
      ],
      "name": "register",
      "outputs": [],
      "stateMutability": "nonpayable",
      "type": "function"
    },
    {
      "inputs": [
        {
          "internalType": "bytes32[]",
          "name": "userProof",
          "type": "bytes32[]"
        },
        {
          "internalType": "bytes32[]",
          "name": "balanceProof",
          "type": "bytes32[]"
        },
        {
          "internalType": "uint256",
          "name": "amount",
          "type": "uint256"
        },
        {
          "internalType": "uint256",
          "name": "nonce",
          "type": "uint256"
        }
      ],
      "name": "deposit",
      "outputs": [],
      "stateMutability": "payable",
      "type": "function",
      "payable": true
    }
  ],
  "bytecode": "0x60806040527fe3d4879dd9a5530315210a62ccfcb361e4d19093e27212732cbb24d43774df2a60001b6000557f21ddb9a356815c3fac1026b6dec5df3124afbadb485c9ba5a3e3398a04b7ba8560001b60015534801561005e57600080fd5b506108198061006e6000396000f3fe60806040526004361061003f5760003560e01c806316776a4e146100445780637bb98a68146101a45780638943ca38146101cf578063f20202751461029e575b600080fd5b6101a26004803603608081101561005a57600080fd5b810190808035906020019064010000000081111561007757600080fd5b82018360208201111561008957600080fd5b803590602001918460208302840111640100000000831117156100ab57600080fd5b919080806020026020016040519081016040528093929190818152602001838360200280828437600081840152601f19601f8201169050808301925050505050505091929192908035906020019064010000000081111561010b57600080fd5b82018360208201111561011d57600080fd5b8035906020019184602083028401116401000000008311171561013f57600080fd5b919080806020026020016040519081016040528093929190818152602001838360200280828437600081840152601f19601f82011690508083019250505050505050919291929080359060200190929190803590602001909291905050506102c9565b005b3480156101b057600080fd5b506101b961041f565b6040518082815260200191505060405180910390f35b3480156101db57600080fd5b5061029c600480360360408110156101f257600080fd5b810190808035906020019064010000000081111561020f57600080fd5b82018360208201111561022157600080fd5b8035906020019184602083028401116401000000008311171561024357600080fd5b919080806020026020016040519081016040528093929190818152602001838360200280828437600081840152601f19601f82011690508083019250505050505050919291929080359060200190929190505050610425565b005b3480156102aa57600080fd5b506102b3610511565b6040518082815260200191505060405180910390f35b6103288433604051602001808273ffffffffffffffffffffffffffffffffffffffff1673ffffffffffffffffffffffffffffffffffffffff1660601b815260140191505060405160208183030381529060405280519060200120610517565b61033157600080fd5b61036983838360405160200180838152602001828152602001925050506040516020818303038152906040528051906020012061052e565b61037257600080fd5b6103ac8334840183604051602001808381526020018281526020019250505060405160208183030381529060405280519060200120610546565b7fe1fffcc4923d04b559f4d29a8bfc6cda04eb5b0d3c460751c2402c5c5cc9109c33348401604051808373ffffffffffffffffffffffffffffffffffffffff1673ffffffffffffffffffffffffffffffffffffffff1681526020018281526020019250505060405180910390a150505050565b60015481565b61042f828261055a565b61043857600080fd5b6104428282610517565b61044b57600080fd5b6104aa8233604051602001808273ffffffffffffffffffffffffffffffffffffffff1673ffffffffffffffffffffffffffffffffffffffff1660601b81526014019150506040516020818303038152906040528051906020012061071a565b7f2d3734a8e47ac8316e500ac231c90a6e1848ca2285f40d07eaa52005e4b3a0e933604051808273ffffffffffffffffffffffffffffffffffffffff1673ffffffffffffffffffffffffffffffffffffffff16815260200191505060405180910390a15050565b60005481565b60008054610525848461072e565b14905092915050565b600060015461053d848461072e565b14905092915050565b610550828261072e565b6001819055505050565b6000807f57570dbcb8388f7a4cb09bf05bcb6c44f46b11a956b25a1b6d50a2d27f2ee71e60001b90506000604051602001808273ffffffffffffffffffffffffffffffffffffffff1673ffffffffffffffffffffffffffffffffffffffff1660601b81526014019150506040516020818303038152906040528051906020012083146105e557600080fd5b6000604051602001808273ffffffffffffffffffffffffffffffffffffffff1673ffffffffffffffffffffffffffffffffffffffff1660601b8152601401915050604051602081830303815290604052805190602001208460008151811061064957fe5b6020026020010151141580156106725750808460018151811061066857fe5b6020026020010151145b8061070657506000604051602001808273ffffffffffffffffffffffffffffffffffffffff1673ffffffffffffffffffffffffffffffffffffffff1660601b815260140191505060405160208183030381529060405280519060200120846000815181106106dc57fe5b6020026020010151148015610705575080846001815181106106fa57fe5b602002602001015114155b5b61070f57600080fd5b600191505092915050565b610724828261072e565b6000819055505050565b60008082905060008090505b84518110156107d857600085828151811061075157fe5b6020026020010151905080831161079857828160405160200180838152602001828152602001925050506040516020818303038152906040528051906020012092506107ca565b808360405160200180838152602001828152602001925050506040516020818303038152906040528051906020012092505b50808060010191505061073a565b50809150509291505056fea2646970667358221220ccfb98e20e2791ccb132361f274be94d5a571d7ac751f782b9a781c927b3477764736f6c63430006000033",
  "source": "// SPDX-License-Identifier: MIT\npragma solidity ^0.6.0;\n\ncontract ZkSwap {\n\n\tbytes32 public users = 0xe3d4879dd9a5530315210a62ccfcb361e4d19093e27212732cbb24d43774df2a; // initial root with 1 set account and 3 zero accounts\n\tbytes32 public balances = 0x21ddb9a356815c3fac1026b6dec5df3124afbadb485c9ba5a3e3398a04b7ba85;\n\tconstructor()\n        public\n    {}\n\n\tevent Registered(address _from);\n\tevent Deposit(address _from, uint amount);\n\n\tfunction register(bytes32[] memory proof, bytes32 oldLeaf)\n\t \tpublic \n\t{\n\t\trequire(checkInputs(proof, oldLeaf));\n\t\trequire(verifyUserMerkle(proof, oldLeaf));\n\t\tupdateUserMerkle(proof, keccak256(abi.encodePacked(msg.sender)));\n\t\temit Registered(msg.sender);\n\t}\n\t\n\tfunction deposit(bytes32[] memory userProof, bytes32[] memory balanceProof, uint amount, uint nonce)\n\t\tpublic\n\t\tpayable\n\t{\n\t\trequire(verifyUserMerkle(userProof, keccak256(abi.encodePacked(msg.sender)))); // makes sure user is registered\n \t\trequire(verifyBalanceMerkle(balanceProof, keccak256(abi.encodePacked(amount, nonce)))); // checks if passed balance amount is correct\n\t\tupdateBalanceMerkle(balanceProof, keccak256(abi.encodePacked(amount + msg.value, nonce)));\n\t\temit Deposit(msg.sender, amount + msg.value);\n\t}\n\n\tfunction verifyUserMerkle(bytes32[] memory proof, bytes32 leaf) \n\t\tinternal \n\t\tview\n\t\treturns (bool) \n\t{\n        return computeMerkle(proof, leaf) == users;\n    }\n\n\tfunction updateUserMerkle(bytes32[] memory proof, bytes32 leaf)\n\t\tinternal\n\t{\n\t\tusers = computeMerkle(proof, leaf);\n\t}\n\n\tfunction verifyBalanceMerkle(bytes32[] memory proof, bytes32 leaf) \n\t\tinternal \n\t\tview\n\t\treturns (bool) \n\t{\n        return computeMerkle(proof, leaf) == balances;\n    }\n\n\tfunction updateBalanceMerkle(bytes32[] memory proof, bytes32 leaf)\n\t\tinternal\n\t{\n\n\t\tbalances = computeMerkle(proof, leaf);\n\t}\n\n\tfunction computeMerkle(bytes32[] memory proof, bytes32 leaf) \n\t\tinternal\n\t\tpure \n\t\treturns (bytes32) \n\t{\n\t\tbytes32 computedHash = leaf;\n\n        for (uint256 i = 0; i < proof.length; i++) {\n            bytes32 proofElement = proof[i];\n\n            if (computedHash <= proofElement) {\n                // Hash(current computed hash + current element of the proof)\n                computedHash = keccak256(abi.encodePacked(computedHash, proofElement));\n            } else {\n                // Hash(current element of the proof + current computed hash)\n                computedHash = keccak256(abi.encodePacked(proofElement, computedHash));\n            }\n        }\n\t\treturn computedHash;\n\t}\n\n\tfunction checkInputs(bytes32[] memory proof, bytes32 leaf)\n\t\tinternal\n\t\tpure\n\t\treturns (bool)\n\t{\n\t\tbytes32 emptyLeafPairHash = 0x57570dbcb8388f7a4cb09bf05bcb6c44f46b11a956b25a1b6d50a2d27f2ee71e;\n\t\trequire(leaf == keccak256(abi.encodePacked(address(0x0)))); // makes sure the oldLeaf is empty => Not overwriting another account\n\t\trequire(\n\t\t\t(proof[0] != keccak256(abi.encodePacked(address(0x0))) && proof[1] == emptyLeafPairHash) || // if the leaf pair is not empty, the following pair must be a emptyLeafPairHash\n\t\t\t(proof[0] == keccak256(abi.encodePacked(address(0x0))) && proof[1] != emptyLeafPairHash) // if the leafPait is empty, the next hash pait cant be empty\n\t\t);\n\t\treturn true;\n\t}\n}\n",
  "sourcePath": "/Users/paul/Documents/projects/bachelor/implementation/contracts/contracts/ZKSwap.sol",
  "compiler": {
    "name": "solc",
    "version": "0.6.0+commit.26b70077.Emscripten.clang"
  },
  "schemaVersion": "3.2.2",
  "updatedAt": "2020-11-08T21:39:08.138Z",
  "networkType": "ethereum",
  "devdoc": {
    "methods": {}
  },
  "userdoc": {
    "methods": {}
  }
}