{
  "contractName": "ZkSwap",
  "abi": [
    {
      "inputs": [],
      "stateMutability": "nonpayable",
      "type": "constructor"
    },
    {
      "anonymous": false,
      "inputs": [
        {
          "indexed": false,
          "internalType": "address",
          "name": "_from",
          "type": "address"
        }
      ],
      "name": "Registered",
      "type": "event"
    },
    {
      "inputs": [],
      "name": "addressBook",
      "outputs": [
        {
          "internalType": "bytes32",
          "name": "",
          "type": "bytes32"
        }
      ],
      "stateMutability": "view",
      "type": "function",
      "constant": true
    },
    {
      "inputs": [
        {
          "internalType": "bytes32[]",
          "name": "proof",
          "type": "bytes32[]"
        },
        {
          "internalType": "bytes32",
          "name": "oldLeaf",
          "type": "bytes32"
        }
      ],
      "name": "register",
      "outputs": [
        {
          "internalType": "bool",
          "name": "",
          "type": "bool"
        }
      ],
      "stateMutability": "nonpayable",
      "type": "function"
    }
  ],
  "bytecode": "0x60806040527f940f4677df688005ff256120a86d431f96c926f884135e28f06041c5aa48194b60001b60005534801561003757600080fd5b5061032f806100476000396000f3fe608060405234801561001057600080fd5b50600436106100365760003560e01c80638943ca381461003b578063f5887cdd14610115575b600080fd5b6100fb6004803603604081101561005157600080fd5b810190808035906020019064010000000081111561006e57600080fd5b82018360208201111561008057600080fd5b803590602001918460208302840111640100000000831117156100a257600080fd5b919080806020026020016040519081016040528093929190818152602001838360200280828437600081840152601f19601f82011690508083019250505050505050919291929080359060200190929190505050610133565b604051808215151515815260200191505060405180910390f35b61011d610213565b6040518082815260200191505060405180910390f35b60006101428360005484610219565b61014b57600080fd5b6101aa8333604051602001808273ffffffffffffffffffffffffffffffffffffffff1673ffffffffffffffffffffffffffffffffffffffff1660601b815260140191505060405160208183030381529060405280519060200120610230565b7f2d3734a8e47ac8316e500ac231c90a6e1848ca2285f40d07eaa52005e4b3a0e933604051808273ffffffffffffffffffffffffffffffffffffffff1673ffffffffffffffffffffffffffffffffffffffff16815260200191505060405180910390a192915050565b60005481565b6000826102268584610244565b1490509392505050565b61023a8282610244565b6000819055505050565b60008082905060008090505b84518110156102ee57600085828151811061026757fe5b602002602001015190508083116102ae57828160405160200180838152602001828152602001925050506040516020818303038152906040528051906020012092506102e0565b808360405160200180838152602001828152602001925050506040516020818303038152906040528051906020012092505b508080600101915050610250565b50809150509291505056fea26469706673582212204a457d0a7e5f5b49712fbddf32aebe9aec516ce5498d54b0df87cd98ecaa717764736f6c63430006000033",
  "source": "// SPDX-License-Identifier: MIT\npragma solidity ^0.6.0;\n\ncontract ZkSwap {\n\n\tbytes32 public addressBook = 0x940f4677df688005ff256120a86d431f96c926f884135e28f06041c5aa48194b; // initial root with 4 zero accounts\n\n\tconstructor()\n        public\n    {}\n\n\tevent Registered(address _from);\n\n\tfunction register(bytes32[] memory proof, bytes32 oldLeaf)\n\t \tpublic \n\t\treturns (bool) \n\t{\n\t\trequire(verifyMerkle(proof, addressBook, oldLeaf));\n\t\tupdateMerkle(proof, keccak256(abi.encodePacked(msg.sender)));\n\t\temit Registered(msg.sender);\n\t}\n\n\tfunction verifyMerkle(bytes32[] memory proof, bytes32 root, bytes32 leaf) \n\t\tinternal \n\t\tpure\n\t\treturns (bool) \n\t{\n        return computeMerkle(proof, leaf) == root;\n    }\n\n\tfunction updateMerkle(bytes32[] memory proof, bytes32 leaf)\n\t\tinternal\n\t{\n\t\taddressBook = computeMerkle(proof, leaf);\n\t}\n\n\tfunction computeMerkle(bytes32[] memory proof, bytes32 leaf) \n\t\tinternal\n\t\tpure \n\t\treturns (bytes32) \n\t{\n\t\tbytes32 computedHash = leaf;\n\n        for (uint256 i = 0; i < proof.length; i++) {\n            bytes32 proofElement = proof[i];\n\n            if (computedHash <= proofElement) {\n                // Hash(current computed hash + current element of the proof)\n                computedHash = keccak256(abi.encodePacked(computedHash, proofElement));\n            } else {\n                // Hash(current element of the proof + current computed hash)\n                computedHash = keccak256(abi.encodePacked(proofElement, computedHash));\n            }\n        }\n\t\treturn computedHash;\n\t}\n}\n\n\n\n// [\"0x5380c7b7ae81a58eb98d9c78de4a1fd7fd9535fc953ed2be602daaa41767312a\",\"0x57570dbcb8388f7a4cb09bf05bcb6c44f46b11a956b25a1b6d50a2d27f2ee71e\"],  \"0x5380c7b7ae81a58eb98d9c78de4a1fd7fd9535fc953ed2be602daaa41767312a\"\n\n// \"0x5380c7b7ae81a58eb98d9c78de4a1fd7fd9535fc953ed2be602daaa41767312a\"",
  "sourcePath": "/Users/paul/Documents/projects/bachelor/implementation/contracts/contracts/ZKSwap.sol",
  "compiler": {
    "name": "solc",
    "version": "0.6.0+commit.26b70077.Emscripten.clang"
  },
  "schemaVersion": "3.2.2",
  "updatedAt": "2020-11-08T11:46:30.652Z",
  "networkType": "ethereum",
  "devdoc": {
    "methods": {}
  },
  "userdoc": {
    "methods": {}
  }
}