{
  "contractName": "PairProxy",
  "abi": [
    {
      "inputs": [
        {
          "internalType": "address payable",
          "name": "zkSwapAddress",
          "type": "address"
        }
      ],
      "stateMutability": "nonpayable",
      "type": "constructor"
    },
    {
      "anonymous": false,
      "inputs": [
        {
          "indexed": false,
          "internalType": "uint256",
          "name": "dir",
          "type": "uint256"
        },
        {
          "indexed": false,
          "internalType": "uint256",
          "name": "ethAmount",
          "type": "uint256"
        },
        {
          "indexed": false,
          "internalType": "uint256",
          "name": "tokenAmount",
          "type": "uint256"
        },
        {
          "indexed": false,
          "internalType": "uint256",
          "name": "poolId",
          "type": "uint256"
        }
      ],
      "name": "TradeComplete",
      "type": "event"
    },
    {
      "inputs": [],
      "name": "owner",
      "outputs": [
        {
          "internalType": "address",
          "name": "",
          "type": "address"
        }
      ],
      "stateMutability": "view",
      "type": "function",
      "constant": true
    },
    {
      "inputs": [],
      "name": "router",
      "outputs": [
        {
          "internalType": "contract IUniswapV2Router02",
          "name": "",
          "type": "address"
        }
      ],
      "stateMutability": "view",
      "type": "function",
      "constant": true
    },
    {
      "inputs": [],
      "name": "token0",
      "outputs": [
        {
          "internalType": "address",
          "name": "",
          "type": "address"
        }
      ],
      "stateMutability": "view",
      "type": "function",
      "constant": true
    },
    {
      "inputs": [],
      "name": "token1",
      "outputs": [
        {
          "internalType": "address",
          "name": "",
          "type": "address"
        }
      ],
      "stateMutability": "view",
      "type": "function",
      "constant": true
    },
    {
      "inputs": [],
      "name": "zkSwap",
      "outputs": [
        {
          "internalType": "contract IZkSwap",
          "name": "",
          "type": "address"
        }
      ],
      "stateMutability": "view",
      "type": "function",
      "constant": true
    },
    {
      "stateMutability": "payable",
      "type": "receive",
      "payable": true
    },
    {
      "inputs": [
        {
          "internalType": "uint256",
          "name": "minAmountOut",
          "type": "uint256"
        },
        {
          "internalType": "uint256",
          "name": "etherAmount",
          "type": "uint256"
        }
      ],
      "name": "ethForToken",
      "outputs": [],
      "stateMutability": "payable",
      "type": "function",
      "payable": true
    },
    {
      "inputs": [
        {
          "internalType": "uint256",
          "name": "minAmountOut",
          "type": "uint256"
        },
        {
          "internalType": "uint256",
          "name": "tokenAmount",
          "type": "uint256"
        }
      ],
      "name": "tokenForEth",
      "outputs": [],
      "stateMutability": "payable",
      "type": "function",
      "payable": true
    },
    {
      "inputs": [
        {
          "internalType": "uint256",
          "name": "amountWei",
          "type": "uint256"
        }
      ],
      "name": "withdrawEth",
      "outputs": [
        {
          "internalType": "bool",
          "name": "",
          "type": "bool"
        }
      ],
      "stateMutability": "nonpayable",
      "type": "function"
    },
    {
      "inputs": [
        {
          "internalType": "uint256",
          "name": "amountWei",
          "type": "uint256"
        }
      ],
      "name": "sendToken",
      "outputs": [
        {
          "internalType": "bool",
          "name": "",
          "type": "bool"
        }
      ],
      "stateMutability": "nonpayable",
      "type": "function"
    },
    {
      "inputs": [
        {
          "components": [
            {
              "internalType": "uint64",
              "name": "ethAmount",
              "type": "uint64"
            },
            {
              "internalType": "uint64",
              "name": "tokenAmount",
              "type": "uint64"
            },
            {
              "internalType": "uint64",
              "name": "nonce",
              "type": "uint64"
            },
            {
              "internalType": "address",
              "name": "from",
              "type": "address"
            }
          ],
          "internalType": "struct SharedTypes.Balance[]",
          "name": "incomingBalances",
          "type": "tuple[]"
        },
        {
          "internalType": "uint64",
          "name": "direction",
          "type": "uint64"
        },
        {
          "internalType": "uint64",
          "name": "ethDelta",
          "type": "uint64"
        },
        {
          "internalType": "uint64",
          "name": "tokenDelta",
          "type": "uint64"
        },
        {
          "internalType": "bytes32",
          "name": "newRoot",
          "type": "bytes32"
        },
        {
          "internalType": "uint256[2]",
          "name": "a",
          "type": "uint256[2]"
        },
        {
          "internalType": "uint256[2][2]",
          "name": "b",
          "type": "uint256[2][2]"
        },
        {
          "internalType": "uint256[2]",
          "name": "c",
          "type": "uint256[2]"
        },
        {
          "internalType": "uint256[2]",
          "name": "dataHash",
          "type": "uint256[2]"
        }
      ],
      "name": "verifyTrade",
      "outputs": [],
      "stateMutability": "nonpayable",
      "type": "function"
    },
    {
      "inputs": [],
      "name": "approve",
      "outputs": [],
      "stateMutability": "payable",
      "type": "function",
      "payable": true
    }
  ],
  "bytecode": "0x608060405273c778417e063141139fce010982780140aa0cd5ab6000806101000a81548173ffffffffffffffffffffffffffffffffffffffff021916908373ffffffffffffffffffffffffffffffffffffffff16021790555073b87241aaa3e8991c6922e830b61722838cf130fb600160006101000a81548173ffffffffffffffffffffffffffffffffffffffff021916908373ffffffffffffffffffffffffffffffffffffffff160217905550737a250d5630b4cf539739df2c5dacb4c659f2488d600360006101000a81548173ffffffffffffffffffffffffffffffffffffffff021916908373ffffffffffffffffffffffffffffffffffffffff1602179055503480156200010f57600080fd5b5060405162001e3a38038062001e3a8339818101604052810190620001359190620001d5565b80600460006101000a81548173ffffffffffffffffffffffffffffffffffffffff021916908373ffffffffffffffffffffffffffffffffffffffff16021790555033600260006101000a81548173ffffffffffffffffffffffffffffffffffffffff021916908373ffffffffffffffffffffffffffffffffffffffff160217905550506200024f565b600081519050620001cf8162000235565b92915050565b600060208284031215620001e857600080fd5b6000620001f884828501620001be565b91505092915050565b60006200020e8262000215565b9050919050565b600073ffffffffffffffffffffffffffffffffffffffff82169050919050565b620002408162000201565b81146200024c57600080fd5b50565b611bdb806200025f6000396000f3fe6080604052600436106100a05760003560e01c80638da5cb5b116100645780638da5cb5b14610172578063a47a526d1461019d578063c311d049146101b9578063d21220a7146101f6578063eb8f984314610221578063f887ea401461023d576100a7565b80630dfe1681146100ac57806312424e3f146100d757806341d01b5f146100e1578063437e95f11461010c5780637bada08e14610149576100a7565b366100a757005b600080fd5b3480156100b857600080fd5b506100c1610268565b6040516100ce91906115a6565b60405180910390f35b6100df61028c565b005b3480156100ed57600080fd5b506100f6610369565b6040516101039190611707565b60405180910390f35b34801561011857600080fd5b50610133600480360381019061012e91906111db565b61038f565b60405161014091906116d1565b60405180910390f35b34801561015557600080fd5b50610170600480360381019061016b9190611092565b6104a1565b005b34801561017e57600080fd5b506101876106e6565b60405161019491906115a6565b60405180910390f35b6101b760048036038101906101b29190611204565b61070c565b005b3480156101c557600080fd5b506101e060048036038101906101db91906111db565b610959565b6040516101ed91906116d1565b60405180910390f35b34801561020257600080fd5b5061020b610a2a565b60405161021891906115a6565b60405180910390f35b61023b60048036038101906102369190611204565b610a50565b005b34801561024957600080fd5b50610252610d88565b60405161025f91906116ec565b60405180910390f35b60008054906101000a900473ffffffffffffffffffffffffffffffffffffffff1681565b600160009054906101000a900473ffffffffffffffffffffffffffffffffffffffff1673ffffffffffffffffffffffffffffffffffffffff1663095ea7b3600460009054906101000a900473ffffffffffffffffffffffffffffffffffffffff1668056bc75e2d631000006040518363ffffffff1660e01b81526004016103149291906115c1565b602060405180830381600087803b15801561032e57600080fd5b505af1158015610342573d6000803e3d6000fd5b505050506040513d601f19601f8201168201806040525081019061036691906111b2565b50565b600460009054906101000a900473ffffffffffffffffffffffffffffffffffffffff1681565b6000600260009054906101000a900473ffffffffffffffffffffffffffffffffffffffff1673ffffffffffffffffffffffffffffffffffffffff163373ffffffffffffffffffffffffffffffffffffffff16146103eb57600080fd5b600160009054906101000a900473ffffffffffffffffffffffffffffffffffffffff1673ffffffffffffffffffffffffffffffffffffffff1663a9059cbb33846040518363ffffffff1660e01b81526004016104489291906115ea565b602060405180830381600087803b15801561046257600080fd5b505af1158015610476573d6000803e3d6000fd5b505050506040513d601f19601f8201168201806040525081019061049a91906111b2565b9050919050565b60008867ffffffffffffffff16141561062d57600160009054906101000a900473ffffffffffffffffffffffffffffffffffffffff1673ffffffffffffffffffffffffffffffffffffffff1663095ea7b3600460009054906101000a900473ffffffffffffffffffffffffffffffffffffffff16620f424089026040518363ffffffff1660e01b8152600401610538929190611613565b602060405180830381600087803b15801561055257600080fd5b505af1158015610566573d6000803e3d6000fd5b505050506040513d601f19601f8201168201806040525081019061058a91906111b2565b50600460009054906101000a900473ffffffffffffffffffffffffffffffffffffffff1673ffffffffffffffffffffffffffffffffffffffff16637bada08e8a8a8a8a8a8a8a8a8a6040518a63ffffffff1660e01b81526004016105f69998979695949392919061163c565b600060405180830381600087803b15801561061057600080fd5b505af1158015610624573d6000803e3d6000fd5b505050506106db565b600460009054906101000a900473ffffffffffffffffffffffffffffffffffffffff1673ffffffffffffffffffffffffffffffffffffffff16637bada08e620f4240890267ffffffffffffffff168b8b8b8b8b8b8b8b8b6040518b63ffffffff1660e01b81526004016106a89998979695949392919061163c565b6000604051808303818588803b1580156106c157600080fd5b505af11580156106d5573d6000803e3d6000fd5b50505050505b505050505050505050565b600260009054906101000a900473ffffffffffffffffffffffffffffffffffffffff1681565b6000600267ffffffffffffffff8111801561072657600080fd5b506040519080825280602002602001820160405280156107555781602001602082028036833780820191505090505b50905060008054906101000a900473ffffffffffffffffffffffffffffffffffffffff168160008151811061078657fe5b602002602001019073ffffffffffffffffffffffffffffffffffffffff16908173ffffffffffffffffffffffffffffffffffffffff1681525050600160009054906101000a900473ffffffffffffffffffffffffffffffffffffffff16816001815181106107f057fe5b602002602001019073ffffffffffffffffffffffffffffffffffffffff16908173ffffffffffffffffffffffffffffffffffffffff16815250506000600360009054906101000a900473ffffffffffffffffffffffffffffffffffffffff1673ffffffffffffffffffffffffffffffffffffffff16637ff36ab58486853061025842016040518663ffffffff1660e01b815260040161089294939291906117ac565b6000604051808303818588803b1580156108ab57600080fd5b505af11580156108bf573d6000803e3d6000fd5b50505050506040513d6000823e3d601f19601f820116820180604052508101906108e99190611171565b90507fcee4e89e00ca31d0db1d661c1213b812352ec3494cc8ac247756e384ac37241160008260008151811061091b57fe5b60200260200101518360018151811061093057fe5b602002602001015161030960405161094b9493929190611722565b60405180910390a150505050565b6000600260009054906101000a900473ffffffffffffffffffffffffffffffffffffffff1673ffffffffffffffffffffffffffffffffffffffff163373ffffffffffffffffffffffffffffffffffffffff16146109b557600080fd5b60003373ffffffffffffffffffffffffffffffffffffffff16836040516109db90611591565b60006040518083038185875af1925050503d8060008114610a18576040519150601f19603f3d011682016040523d82523d6000602084013e610a1d565b606091505b5050905080915050919050565b600160009054906101000a900473ffffffffffffffffffffffffffffffffffffffff1681565b600160009054906101000a900473ffffffffffffffffffffffffffffffffffffffff1673ffffffffffffffffffffffffffffffffffffffff1663095ea7b3600360009054906101000a900473ffffffffffffffffffffffffffffffffffffffff16836040518363ffffffff1660e01b8152600401610acf9291906115ea565b602060405180830381600087803b158015610ae957600080fd5b505af1158015610afd573d6000803e3d6000fd5b505050506040513d601f19601f82011682018060405250810190610b2191906111b2565b506000600267ffffffffffffffff81118015610b3c57600080fd5b50604051908082528060200260200182016040528015610b6b5781602001602082028036833780820191505090505b509050600160009054906101000a900473ffffffffffffffffffffffffffffffffffffffff1681600081518110610b9e57fe5b602002602001019073ffffffffffffffffffffffffffffffffffffffff16908173ffffffffffffffffffffffffffffffffffffffff168152505060008054906101000a900473ffffffffffffffffffffffffffffffffffffffff1681600181518110610c0657fe5b602002602001019073ffffffffffffffffffffffffffffffffffffffff16908173ffffffffffffffffffffffffffffffffffffffff16815250506000600360009054906101000a900473ffffffffffffffffffffffffffffffffffffffff1673ffffffffffffffffffffffffffffffffffffffff166318cbafe58486853061025842016040518663ffffffff1660e01b8152600401610ca99594939291906117f8565b600060405180830381600087803b158015610cc357600080fd5b505af1158015610cd7573d6000803e3d6000fd5b505050506040513d6000823e3d601f19601f82011682018060405250810190610d009190611171565b90507fcee4e89e00ca31d0db1d661c1213b812352ec3494cc8ac247756e384ac3724116001620f424083600181518110610d3657fe5b602002602001015181610d4557fe5b04620f424084600081518110610d5757fe5b602002602001015181610d6657fe5b04610309604051610d7a9493929190611767565b60405180910390a150505050565b600360009054906101000a900473ffffffffffffffffffffffffffffffffffffffff1681565b6000610dc1610dbc84611883565b611852565b90508083825260208201905082856080860282011115610de057600080fd5b60005b85811015610e105781610df68882610fdf565b845260208401935060808301925050600181019050610de3565b5050509392505050565b6000610e2d610e28846118af565b611852565b90508082856020860282011115610e4357600080fd5b60005b85811015610e735781610e598882611053565b845260208401935060208301925050600181019050610e46565b5050509392505050565b6000610e90610e8b846118d5565b611852565b90508083825260208201905082856020860282011115610eaf57600080fd5b60005b85811015610edf5781610ec58882611068565b845260208401935060208301925050600181019050610eb2565b5050509392505050565b600081359050610ef881611b32565b92915050565b600081905082604060020282011115610f1657600080fd5b92915050565b600082601f830112610f2d57600080fd5b8135610f3d848260208601610dae565b91505092915050565b600081905082602060020282011115610f5e57600080fd5b92915050565b600082601f830112610f7557600080fd5b6002610f82848285610e1a565b91505092915050565b600082601f830112610f9c57600080fd5b8151610fac848260208601610e7d565b91505092915050565b600081519050610fc481611b49565b92915050565b600081359050610fd981611b60565b92915050565b600060808284031215610ff157600080fd5b610ffb6080611852565b9050600061100b8482850161107d565b600083015250602061101f8482850161107d565b60208301525060406110338482850161107d565b604083015250606061104784828501610ee9565b60608301525092915050565b60008135905061106281611b77565b92915050565b60008151905061107781611b77565b92915050565b60008135905061108c81611b8e565b92915050565b60008060008060008060008060006101e08a8c0312156110b157600080fd5b60008a013567ffffffffffffffff8111156110cb57600080fd5b6110d78c828d01610f1c565b99505060206110e88c828d0161107d565b98505060406110f98c828d0161107d565b975050606061110a8c828d0161107d565b965050608061111b8c828d01610fca565b95505060a061112c8c828d01610f46565b94505060e061113d8c828d01610efe565b93505061016061114f8c828d01610f46565b9250506101a06111618c828d01610f64565b9150509295985092959850929598565b60006020828403121561118357600080fd5b600082015167ffffffffffffffff81111561119d57600080fd5b6111a984828501610f8b565b91505092915050565b6000602082840312156111c457600080fd5b60006111d284828501610fb5565b91505092915050565b6000602082840312156111ed57600080fd5b60006111fb84828501611053565b91505092915050565b6000806040838503121561121757600080fd5b600061122585828601611053565b925050602061123685828601611053565b9150509250929050565b600061124c83836112af565b60208301905092915050565b600061126483836113e8565b60408301905092915050565b600061127c83836114f1565b60808301905092915050565b60006112948383611546565b60208301905092915050565b6112a981611a49565b82525050565b6112b8816119e3565b82525050565b6112c7816119e3565b82525050565b60006112d882611935565b6112e28185611995565b93506112ed83611901565b8060005b8381101561131e5781516113058882611240565b975061131083611961565b9250506001810190506112f1565b5085935050505092915050565b61133481611940565b61133e81846119a6565b925061134982611911565b8060005b838110156113825761135f82846119d8565b6113698782611258565b96506113748361196e565b92505060018101905061134d565b505050505050565b60006113958261194b565b61139f81856119b1565b93506113aa8361191b565b8060005b838110156113db5781516113c28882611270565b97506113cd8361197b565b9250506001810190506113ae565b5085935050505092915050565b6113f460408383611b21565b5050565b61140460408383611b21565b5050565b61141181611956565b61141b81846119c2565b92506114268261192b565b8060005b8381101561145757815161143e8782611288565b965061144983611988565b92505060018101905061142a565b505050505050565b611468816119f5565b82525050565b61147781611a01565b82525050565b61148681611a5b565b82525050565b61149581611a7f565b82525050565b6114a481611aa3565b82525050565b6114b381611ab5565b82525050565b6114c281611ac7565b82525050565b6114d181611ad9565b82525050565b60006114e46000836119cd565b9150600082019050919050565b6080820160008201516115076000850182611573565b50602082015161151a6020850182611573565b50604082015161152d6040850182611573565b50606082015161154060608501826112af565b50505050565b61154f81611a2b565b82525050565b61155e81611a2b565b82525050565b61156d81611b0f565b82525050565b61157c81611a35565b82525050565b61158b81611a35565b82525050565b600061159c826114d7565b9150819050919050565b60006020820190506115bb60008301846112be565b92915050565b60006040820190506115d660008301856112be565b6115e360208301846114aa565b9392505050565b60006040820190506115ff60008301856112be565b61160c6020830184611555565b9392505050565b600060408201905061162860008301856112be565b6116356020830184611564565b9392505050565b60006101e0820190508181036000830152611657818c61138a565b9050611666602083018b611582565b611673604083018a611582565b6116806060830189611582565b61168d608083018861146e565b61169a60a08301876113f8565b6116a760e083018661132b565b6116b56101608301856113f8565b6116c36101a0830184611408565b9a9950505050505050505050565b60006020820190506116e6600083018461145f565b92915050565b6000602082019050611701600083018461147d565b92915050565b600060208201905061171c600083018461148c565b92915050565b6000608082019050611737600083018761149b565b6117446020830186611555565b6117516040830185611555565b61175e60608301846114c8565b95945050505050565b600060808201905061177c60008301876114b9565b6117896020830186611555565b6117966040830185611555565b6117a360608301846114c8565b95945050505050565b60006080820190506117c16000830187611555565b81810360208301526117d381866112cd565b90506117e260408301856112a0565b6117ef6060830184611555565b95945050505050565b600060a08201905061180d6000830188611555565b61181a6020830187611555565b818103604083015261182c81866112cd565b905061183b60608301856112a0565b6118486080830184611555565b9695505050505050565b6000604051905081810181811067ffffffffffffffff8211171561187957611878611b30565b5b8060405250919050565b600067ffffffffffffffff82111561189e5761189d611b30565b5b602082029050602081019050919050565b600067ffffffffffffffff8211156118ca576118c9611b30565b5b602082029050919050565b600067ffffffffffffffff8211156118f0576118ef611b30565b5b602082029050602081019050919050565b6000819050602082019050919050565b6000819050919050565b6000819050602082019050919050565b6000819050919050565b600081519050919050565b600060029050919050565b600081519050919050565b600060029050919050565b6000602082019050919050565b6000604082019050919050565b6000602082019050919050565b6000602082019050919050565b600082825260208201905092915050565b600081905092915050565b600082825260208201905092915050565b600081905092915050565b600081905092915050565b600082905092915050565b60006119ee82611a0b565b9050919050565b60008115159050919050565b6000819050919050565b600073ffffffffffffffffffffffffffffffffffffffff82169050919050565b6000819050919050565b600067ffffffffffffffff82169050919050565b6000611a5482611aeb565b9050919050565b6000611a6682611a6d565b9050919050565b6000611a7882611a0b565b9050919050565b6000611a8a82611a91565b9050919050565b6000611a9c82611a0b565b9050919050565b6000611aae82611a2b565b9050919050565b6000611ac082611a2b565b9050919050565b6000611ad282611a2b565b9050919050565b6000611ae482611a2b565b9050919050565b6000611af682611afd565b9050919050565b6000611b0882611a0b565b9050919050565b6000611b1a82611a35565b9050919050565b82818337600083830152505050565bfe5b611b3b816119e3565b8114611b4657600080fd5b50565b611b52816119f5565b8114611b5d57600080fd5b50565b611b6981611a01565b8114611b7457600080fd5b50565b611b8081611a2b565b8114611b8b57600080fd5b50565b611b9781611a35565b8114611ba257600080fd5b5056fea2646970667358221220e600d03ba88be3afa87f8e846b366d7bcf9f6718a5e8da04bba3bedf4298605e64736f6c63430007060033",
  "immutableReferences": {},
  "source": "// SPDX-License-Identifier: MIT\npragma experimental ABIEncoderV2;\npragma solidity ^0.7.6;\nimport \"./interface/IUniswapV2Router02.sol\";\nimport \"./interface/IERC20.sol\";\nimport \"./interface/IZKSwap.sol\";\n\ncontract PairProxy {\n\n    event TradeComplete(uint dir, uint ethAmount, uint tokenAmount, uint poolId);\n    \n    address public token0 = 0xc778417E063141139Fce010982780140Aa0cD5Ab;\n    address public token1 = 0xb87241aAA3E8991C6922E830B61722838cF130fb;\n    address public owner;\n    \n    IUniswapV2Router02 public router = IUniswapV2Router02(0x7a250d5630B4cF539739dF2C5dAcb4c659F2488D);\n    IZkSwap public zkSwap;\n\n    constructor(address payable zkSwapAddress) \n    {\n        zkSwap = IZkSwap(zkSwapAddress);\n        owner = msg.sender;\n    }\n\n    function ethForToken(uint minAmountOut, uint etherAmount) \n        external\n        payable\n    {\n        address[] memory path = new address[](2);\n        path[0] = token0;\n        path[1] = token1;\n        uint[] memory res = router.swapExactETHForTokens{value: etherAmount}(\n            minAmountOut, \n            path,\n            address(this),\n            block.timestamp + 600\n        );\n        emit TradeComplete(0, res[0], res[1], 777);\n    }\n    \n    function tokenForEth(uint minAmountOut, uint tokenAmount)\n        external\n        payable\n    {\n        IERC20(token1).approve(address(router), tokenAmount);\n        address[] memory path = new address[](2);\n        path[0] = token1;\n        path[1] = token0;\n        uint[] memory res = router.swapExactTokensForETH(\n            tokenAmount,\n            minAmountOut, \n            path,\n            address(this),\n            block.timestamp + 600\n        );\n        emit TradeComplete(1, res[1] / 1000000, res[0] / 1000000, 777);\n    }\n\n    function withdrawEth(uint amountWei)\n\t\texternal\n\t\treturns (bool)\n\t{\n        require(msg.sender == owner);\n\t\t(bool sent, ) = address(msg.sender).call{value: amountWei}(\"\");\n        return sent;\n\t}\n\n\tfunction sendToken(uint amountWei) // not working currently!!\n\t\texternal\n\t\treturns (bool)\n\t{\n        require(msg.sender == owner);\n\t\treturn IERC20(token1).transfer(address(msg.sender), amountWei);\n\t}\n\n    function verifyTrade(\n\t\tSharedTypes.Balance[] memory incomingBalances,\n\t\tuint64 direction,\n\t\tuint64 ethDelta,\n\t\tuint64 tokenDelta,\n\t\tbytes32 newRoot,\n\t\tuint[2] calldata a,\n\t\tuint[2][2] calldata b,\n\t\tuint[2] calldata c, \n\t\tuint[2] memory dataHash\n\t) \n        external\n    {\n        if(direction == 0){ // we're sending tokens that we bought. Must approve before verifying\n            IERC20(token1).approve(address(zkSwap), tokenDelta * 1000000);\n            zkSwap.verifyTrade(incomingBalances, direction, ethDelta, tokenDelta, newRoot, a, b, c, dataHash);\n            // zkSwap.verifyTrade(direction, ethDelta, tokenDelta, newRoot, a, b, c, dataHash);\n        } else { // we're sending eth, can send with TX\n            zkSwap.verifyTrade{value: ethDelta * 1000000}(incomingBalances, direction, ethDelta, tokenDelta, newRoot, a, b, c, dataHash);\n            // zkSwap.verifyTrade{value: ethDelta * 1000000}(direction, ethDelta, tokenDelta, newRoot, a, b, c, dataHash);\n        }\n    }\n    \n    function approve() \n        external\n        payable\n    {\n        IERC20(token1).approve(address(zkSwap), 100000000000000 * 1000000);\n    }\n\t\n    receive() external payable {\n    }\n}\n\n// Direction 0:\n//       trade: -Eth -> + Token\n//       trans: +Eth -> -Token\n\n// Direction 1:\n//       trade: -Token -> +Eth\n//       trans: +Token -> -Eth\n",
  "sourcePath": "/Users/paul/Documents/projects/bachelor/implementation/contracts/contracts/PairProxy.sol",
  "compiler": {
    "name": "solc",
    "version": "0.7.6+commit.7338295f.Emscripten.clang"
  },
  "schemaVersion": "3.3.3",
  "updatedAt": "2021-04-28T14:23:21.732Z",
  "networkType": "ethereum",
  "devdoc": {
    "kind": "dev",
    "methods": {},
    "version": 1
  },
  "userdoc": {
    "kind": "user",
    "methods": {},
    "version": 1
  }
}