{
  "contractName": "ZkSwap",
  "abi": [
    {
      "inputs": [
        {
          "internalType": "address",
          "name": "ercAddr",
          "type": "address"
        },
        {
          "internalType": "address",
          "name": "verifierAddr",
          "type": "address"
        }
      ],
      "stateMutability": "nonpayable",
      "type": "constructor"
    },
    {
      "anonymous": false,
      "inputs": [
        {
          "indexed": false,
          "internalType": "uint256",
          "name": "amount",
          "type": "uint256"
        }
      ],
      "name": "Balance",
      "type": "event"
    },
    {
      "anonymous": false,
      "inputs": [
        {
          "indexed": false,
          "internalType": "address",
          "name": "_from",
          "type": "address"
        },
        {
          "indexed": false,
          "internalType": "uint64",
          "name": "ethAmount",
          "type": "uint64"
        },
        {
          "indexed": false,
          "internalType": "uint64",
          "name": "tokenAmount",
          "type": "uint64"
        },
        {
          "indexed": false,
          "internalType": "uint64",
          "name": "nonce",
          "type": "uint64"
        }
      ],
      "name": "BalanceUpdate",
      "type": "event"
    },
    {
      "anonymous": false,
      "inputs": [
        {
          "indexed": false,
          "internalType": "bytes32",
          "name": "yeah",
          "type": "bytes32"
        }
      ],
      "name": "Success",
      "type": "event"
    },
    {
      "inputs": [],
      "name": "balances",
      "outputs": [
        {
          "internalType": "bytes32",
          "name": "",
          "type": "bytes32"
        }
      ],
      "stateMutability": "view",
      "type": "function",
      "constant": true
    },
    {
      "inputs": [],
      "name": "erc20",
      "outputs": [
        {
          "internalType": "address",
          "name": "",
          "type": "address"
        }
      ],
      "stateMutability": "view",
      "type": "function",
      "constant": true
    },
    {
      "inputs": [],
      "name": "ethToToken",
      "outputs": [
        {
          "internalType": "uint256",
          "name": "",
          "type": "uint256"
        }
      ],
      "stateMutability": "view",
      "type": "function",
      "constant": true
    },
    {
      "inputs": [
        {
          "internalType": "uint256",
          "name": "",
          "type": "uint256"
        }
      ],
      "name": "ethToTokenPath",
      "outputs": [
        {
          "internalType": "address",
          "name": "",
          "type": "address"
        }
      ],
      "stateMutability": "view",
      "type": "function",
      "constant": true
    },
    {
      "inputs": [],
      "name": "router",
      "outputs": [
        {
          "internalType": "address",
          "name": "",
          "type": "address"
        }
      ],
      "stateMutability": "view",
      "type": "function",
      "constant": true
    },
    {
      "inputs": [],
      "name": "tokenToEth",
      "outputs": [
        {
          "internalType": "uint256",
          "name": "",
          "type": "uint256"
        }
      ],
      "stateMutability": "view",
      "type": "function",
      "constant": true
    },
    {
      "inputs": [
        {
          "internalType": "uint256",
          "name": "",
          "type": "uint256"
        }
      ],
      "name": "tokenToEthPath",
      "outputs": [
        {
          "internalType": "address",
          "name": "",
          "type": "address"
        }
      ],
      "stateMutability": "view",
      "type": "function",
      "constant": true
    },
    {
      "inputs": [],
      "name": "verifier",
      "outputs": [
        {
          "internalType": "address",
          "name": "",
          "type": "address"
        }
      ],
      "stateMutability": "view",
      "type": "function",
      "constant": true
    },
    {
      "inputs": [
        {
          "components": [
            {
              "internalType": "uint64",
              "name": "ethAmount",
              "type": "uint64"
            },
            {
              "internalType": "uint64",
              "name": "tokenAmount",
              "type": "uint64"
            },
            {
              "internalType": "uint64",
              "name": "nonce",
              "type": "uint64"
            },
            {
              "internalType": "address",
              "name": "from",
              "type": "address"
            }
          ],
          "internalType": "struct SharedTypes.Balance[]",
          "name": "incomingBalances",
          "type": "tuple[]"
        },
        {
          "internalType": "uint64",
          "name": "direction",
          "type": "uint64"
        },
        {
          "internalType": "uint64",
          "name": "deltaEth",
          "type": "uint64"
        },
        {
          "internalType": "uint64",
          "name": "deltaToken",
          "type": "uint64"
        },
        {
          "internalType": "bytes32",
          "name": "newRoot",
          "type": "bytes32"
        },
        {
          "internalType": "uint256[2]",
          "name": "a",
          "type": "uint256[2]"
        },
        {
          "internalType": "uint256[2][2]",
          "name": "b",
          "type": "uint256[2][2]"
        },
        {
          "internalType": "uint256[2]",
          "name": "c",
          "type": "uint256[2]"
        },
        {
          "internalType": "uint256[2]",
          "name": "dataHash",
          "type": "uint256[2]"
        }
      ],
      "name": "verifyTrade",
      "outputs": [],
      "stateMutability": "payable",
      "type": "function",
      "payable": true
    },
    {
      "inputs": [
        {
          "components": [
            {
              "internalType": "uint64",
              "name": "ethAmount",
              "type": "uint64"
            },
            {
              "internalType": "uint64",
              "name": "tokenAmount",
              "type": "uint64"
            },
            {
              "internalType": "uint64",
              "name": "nonce",
              "type": "uint64"
            },
            {
              "internalType": "address",
              "name": "from",
              "type": "address"
            }
          ],
          "internalType": "struct SharedTypes.Balance[]",
          "name": "incomingBalances",
          "type": "tuple[]"
        },
        {
          "internalType": "bytes32",
          "name": "newRoot",
          "type": "bytes32"
        },
        {
          "internalType": "uint64",
          "name": "deltaEth",
          "type": "uint64"
        },
        {
          "internalType": "uint64",
          "name": "deltaToken",
          "type": "uint64"
        },
        {
          "internalType": "uint64",
          "name": "direction",
          "type": "uint64"
        }
      ],
      "name": "hashTradeData",
      "outputs": [
        {
          "internalType": "bytes32",
          "name": "",
          "type": "bytes32"
        }
      ],
      "stateMutability": "nonpayable",
      "type": "function"
    },
    {
      "inputs": [
        {
          "internalType": "bytes32[]",
          "name": "balanceProof",
          "type": "bytes32[]"
        }
      ],
      "name": "firstDepositEth",
      "outputs": [],
      "stateMutability": "payable",
      "type": "function",
      "payable": true
    },
    {
      "inputs": [
        {
          "internalType": "bytes32[]",
          "name": "balanceProof",
          "type": "bytes32[]"
        },
        {
          "internalType": "uint64",
          "name": "ethAmount",
          "type": "uint64"
        },
        {
          "internalType": "uint64",
          "name": "tokenAmount",
          "type": "uint64"
        },
        {
          "internalType": "uint64",
          "name": "nonce",
          "type": "uint64"
        }
      ],
      "name": "depositEth",
      "outputs": [],
      "stateMutability": "payable",
      "type": "function",
      "payable": true
    },
    {
      "inputs": [
        {
          "internalType": "bytes32[]",
          "name": "balanceProof",
          "type": "bytes32[]"
        },
        {
          "internalType": "uint64",
          "name": "depositAmount",
          "type": "uint64"
        }
      ],
      "name": "firstDepositERC20",
      "outputs": [],
      "stateMutability": "nonpayable",
      "type": "function"
    },
    {
      "inputs": [
        {
          "internalType": "bytes32[]",
          "name": "balanceProof",
          "type": "bytes32[]"
        },
        {
          "internalType": "uint64",
          "name": "ethAmount",
          "type": "uint64"
        },
        {
          "internalType": "uint64",
          "name": "tokenAmount",
          "type": "uint64"
        },
        {
          "internalType": "uint64",
          "name": "nonce",
          "type": "uint64"
        },
        {
          "internalType": "uint64",
          "name": "depositAmount",
          "type": "uint64"
        }
      ],
      "name": "depositERC20",
      "outputs": [],
      "stateMutability": "nonpayable",
      "type": "function"
    },
    {
      "inputs": [
        {
          "internalType": "bytes32[]",
          "name": "balanceProof",
          "type": "bytes32[]"
        },
        {
          "internalType": "uint64",
          "name": "ethAmount",
          "type": "uint64"
        },
        {
          "internalType": "uint64",
          "name": "tokenAmount",
          "type": "uint64"
        },
        {
          "internalType": "uint64",
          "name": "nonce",
          "type": "uint64"
        },
        {
          "internalType": "uint64",
          "name": "withdrawAmount",
          "type": "uint64"
        }
      ],
      "name": "withdrawEth",
      "outputs": [],
      "stateMutability": "nonpayable",
      "type": "function"
    },
    {
      "inputs": [
        {
          "internalType": "bytes32[]",
          "name": "balanceProof",
          "type": "bytes32[]"
        },
        {
          "internalType": "uint64",
          "name": "ethAmount",
          "type": "uint64"
        },
        {
          "internalType": "uint64",
          "name": "tokenAmount",
          "type": "uint64"
        },
        {
          "internalType": "uint64",
          "name": "nonce",
          "type": "uint64"
        },
        {
          "internalType": "uint64",
          "name": "withdrawAmount",
          "type": "uint64"
        }
      ],
      "name": "withdrawERC20",
      "outputs": [],
      "stateMutability": "nonpayable",
      "type": "function"
    }
  ],
  "bytecode": "0x60806040527f506d86582d252405b840018792cad2bf1259f1ef5aa5f887e13cb2f0094f51e160001b600055737a250d5630b4cf539739df2c5dacb4c659f2488d600160006101000a81548173ffffffffffffffffffffffffffffffffffffffff021916908373ffffffffffffffffffffffffffffffffffffffff160217905550604051806040016040528073c778417e063141139fce010982780140aa0cd5ab73ffffffffffffffffffffffffffffffffffffffff1673ffffffffffffffffffffffffffffffffffffffff16815260200173b87241aaa3e8991c6922e830b61722838cf130fb73ffffffffffffffffffffffffffffffffffffffff1673ffffffffffffffffffffffffffffffffffffffff1681525060029060026200012792919062000477565b50604051806040016040528073b87241aaa3e8991c6922e830b61722838cf130fb73ffffffffffffffffffffffffffffffffffffffff1673ffffffffffffffffffffffffffffffffffffffff16815260200173c778417e063141139fce010982780140aa0cd5ab73ffffffffffffffffffffffffffffffffffffffff1673ffffffffffffffffffffffffffffffffffffffff168152506003906002620001cf92919062000477565b5060006007556000600855348015620001e757600080fd5b50604051620034673803806200346783398181016040528101906200020d9190620005f5565b81600460006101000a81548173ffffffffffffffffffffffffffffffffffffffff021916908373ffffffffffffffffffffffffffffffffffffffff16021790555080600560006101000a81548173ffffffffffffffffffffffffffffffffffffffff021916908373ffffffffffffffffffffffffffffffffffffffff1602179055506200029f620002a760201b60201c565b5050620008e7565b6064600160009054906101000a900473ffffffffffffffffffffffffffffffffffffffff1673ffffffffffffffffffffffffffffffffffffffff1663d06ca61f670de0b6b3a764000060026040518363ffffffff1660e01b8152600401620003119291906200072a565b60006040518083038186803b1580156200032a57600080fd5b505afa1580156200033f573d6000803e3d6000fd5b505050506040513d6000823e3d601f19601f820116820180604052508101906200036a919062000636565b6001815181106200037757fe5b6020026020010151816200038757fe5b046007819055506064600160009054906101000a900473ffffffffffffffffffffffffffffffffffffffff1673ffffffffffffffffffffffffffffffffffffffff1663d06ca61f670de0b6b3a764000060036040518363ffffffff1660e01b8152600401620003f89291906200072a565b60006040518083038186803b1580156200041157600080fd5b505afa15801562000426573d6000803e3d6000fd5b505050506040513d6000823e3d601f19601f8201168201806040525081019062000451919062000636565b6001815181106200045e57fe5b6020026020010151816200046e57fe5b04600881905550565b828054828255906000526020600020908101928215620004f3579160200282015b82811115620004f25782518260006101000a81548173ffffffffffffffffffffffffffffffffffffffff021916908373ffffffffffffffffffffffffffffffffffffffff1602179055509160200191906001019062000498565b5b50905062000502919062000506565b5090565b5b808211156200052157600081600090555060010162000507565b5090565b60006200053c620005368462000792565b6200075e565b905080838252602082019050828560208602820111156200055c57600080fd5b60005b85811015620005905781620005758882620005de565b8452602084019350602083019250506001810190506200055f565b5050509392505050565b600081519050620005ab81620008b3565b92915050565b600082601f830112620005c357600080fd5b8151620005d584826020860162000525565b91505092915050565b600081519050620005ef81620008cd565b92915050565b600080604083850312156200060957600080fd5b600062000619858286016200059a565b92505060206200062c858286016200059a565b9150509250929050565b6000602082840312156200064957600080fd5b600082015167ffffffffffffffff8111156200066457600080fd5b6200067284828501620005b1565b91505092915050565b600062000689838362000695565b60208301905092915050565b620006a0816200081f565b82525050565b6000620006b382620007d6565b620006bf8185620007ee565b9350620006cc83620007c1565b8060005b838110156200070c57620006e48262000891565b620006f088826200067b565b9750620006fd83620007e1565b925050600181019050620006d0565b5085935050505092915050565b62000724816200085d565b82525050565b600060408201905062000741600083018562000719565b8181036020830152620007558184620006a6565b90509392505050565b6000604051905081810181811067ffffffffffffffff821117156200078857620007876200088f565b5b8060405250919050565b600067ffffffffffffffff821115620007b057620007af6200088f565b5b602082029050602081019050919050565b60008190508160005260206000209050919050565b600081549050919050565b6000600182019050919050565b600082825260208201905092915050565b600073ffffffffffffffffffffffffffffffffffffffff82169050919050565b60006200082c8262000833565b9050919050565b600073ffffffffffffffffffffffffffffffffffffffff82169050919050565b6000819050919050565b60006200086a8262000853565b9050919050565b6000620008886200088283620008a6565b620007ff565b9050919050565bfe5b60006200089f825462000871565b9050919050565b60008160001c9050919050565b620008be816200081f565b8114620008ca57600080fd5b50565b620008d88162000853565b8114620008e457600080fd5b50565b612b7080620008f76000396000f3fe6080604052600436106100f35760003560e01c8063785e9e861161008a578063887a7dc911610059578063887a7dc9146102db578063c1c1c30b14610318578063f740cbf214610341578063f887ea401461037e576100f3565b8063785e9e861461023e578063789770f4146102695780637bada08e146102945780637bb98a68146102b0576100f3565b806366f9f3e2116100c657806366f9f3e214610193578063681cec0f146101bc5780636ac0db0f146101d85780636ca7ea4914610201576100f3565b80630482ea3c146100f857806316ce9132146101215780632b7ac3f31461013d5780635c5af00014610168575b600080fd5b34801561010457600080fd5b5061011f600480360381019061011a9190611b7f565b6103a9565b005b61013b60048036038101906101369190611a6f565b6104ad565b005b34801561014957600080fd5b5061015261057f565b60405161015f919061247d565b60405180910390f35b34801561017457600080fd5b5061017d6105a5565b60405161018a91906126f4565b60405180910390f35b34801561019f57600080fd5b506101ba60048036038101906101b59190611b7f565b6105ab565b005b6101d660048036038101906101d19190611b04565b6106e6565b005b3480156101e457600080fd5b506101ff60048036038101906101fa9190611b7f565b6107d2565b005b34801561020d57600080fd5b5061022860048036038101906102239190611c0e565b6108ec565b60405161023591906125c9565b60405180910390f35b34801561024a57600080fd5b50610253610b38565b604051610260919061247d565b60405180910390f35b34801561027557600080fd5b5061027e610b5e565b60405161028b91906126f4565b60405180910390f35b6102ae60048036038101906102a99190611c9d565b610b64565b005b3480156102bc57600080fd5b506102c5610db4565b6040516102d291906125c9565b60405180910390f35b3480156102e757600080fd5b5061030260048036038101906102fd9190611e0f565b610dba565b60405161030f919061247d565b60405180910390f35b34801561032457600080fd5b5061033f600480360381019061033a9190611ab0565b610df9565b005b34801561034d57600080fd5b5061036860048036038101906103639190611e0f565b610ed6565b604051610375919061247d565b60405180910390f35b34801561038a57600080fd5b50610393610f15565b6040516103a0919061247d565b60405180910390f35b33858585856103c3846103be87868686610f3b565b610fcc565b610402576040517f08c379a00000000000000000000000000000000000000000000000000000000081526004016103f9906126b4565b60405180910390fd5b8567ffffffffffffffff168967ffffffffffffffff16101561042357600080fd5b61043d8a61043833898d038c60018d01610f3b565b610fe3565b7f58855b9e295a2fced82e30cb3ee417af2f11ba371d8cd079a06a8695a817bf8c33878b038a60018b016040516104779493929190612498565b60405180910390a1610498620f42408767ffffffffffffffff160233610ff7565b6104a157600080fd5b50505050505050505050565b60008160008060006104ca846104c587868686610f3b565b610fcc565b610509576040517f08c379a0000000000000000000000000000000000000000000000000000000008152600401610500906126b4565b60405180910390fd5b61052c8661052733620f4240348161051d57fe5b0460006001610f3b565b610fe3565b7f58855b9e295a2fced82e30cb3ee417af2f11ba371d8cd079a06a8695a817bf8c33620f4240348161055a57fe5b046000600160405161056f9493929190612498565b60405180910390a1505050505050565b600560009054906101000a900473ffffffffffffffffffffffffffffffffffffffff1681565b60085481565b33858585856105c5846105c087868686610f3b565b610fcc565b610604576040517f08c379a00000000000000000000000000000000000000000000000000000000081526004016105fb906126b4565b60405180910390fd5b8567ffffffffffffffff168867ffffffffffffffff16101561062557600080fd5b7fe8d947d7ebdd7b8b8fa2ad2022c7591418ac32d8c29c5f8a8fc9de52ffa5409286604051610654919061270f565b60405180910390a1610675620f42408767ffffffffffffffff16023361106e565b61067e57600080fd5b6106988a610693338c8a8d0360018d01610f3b565b610fe3565b7f58855b9e295a2fced82e30cb3ee417af2f11ba371d8cd079a06a8695a817bf8c338a888b0360018b016040516106d29493929190612498565b60405180910390a150505050505050505050565b3384848484610700846106fb87868686610f3b565b610fcc565b61073f576040517f08c379a0000000000000000000000000000000000000000000000000000000008152600401610736906126b4565b60405180910390fd5b61076f8961076a33620f4240348161075357fe5b048c67ffffffffffffffff16018b60018c01610f3b565b610fe3565b7f58855b9e295a2fced82e30cb3ee417af2f11ba371d8cd079a06a8695a817bf8c33620f4240348161079d57fe5b048a67ffffffffffffffff16018960018a016040516107bf9493929190612498565b60405180910390a1505050505050505050565b33858585856107ec846107e787868686610f3b565b610fcc565b61082b576040517f08c379a0000000000000000000000000000000000000000000000000000000008152600401610822906126b4565b60405180910390fd5b7fe8d947d7ebdd7b8b8fa2ad2022c7591418ac32d8c29c5f8a8fc9de52ffa540928660405161085a919061270f565b60405180910390a161087b620f42408767ffffffffffffffff16023361115e565b61088457600080fd5b61089e8a610899338c8a8d0160018d01610f3b565b610fe3565b7f58855b9e295a2fced82e30cb3ee417af2f11ba371d8cd079a06a8695a817bf8c338a888b0160018b016040516108d89493929190612498565b60405180910390a150505050505050505050565b600080600367ffffffffffffffff8111801561090757600080fd5b506040519080825280602002602001820160405280156109365781602001602082028036833780820191505090505b50905060005b60038110156109d2576109ad88828151811061095457fe5b60200260200101516060015189838151811061096c57fe5b6020026020010151600001518a848151811061098457fe5b6020026020010151602001518b858151811061099c57fe5b602002602001015160400151610f3b565b8282815181106109b957fe5b602002602001018181525050808060010191505061093c565b506000600260005488620f4240600754816109e957fe5b04620f4240600854816109f857fe5b048a8a8a67ffffffffffffffff16604051602001610a1c97969594939291906123d0565b604051602081830303815290604052604051610a389190612451565b602060405180830381855afa158015610a55573d6000803e3d6000fd5b5050506040513d601f19601f82011682018060405250810190610a789190611de6565b9050600282600081518110610a8957fe5b602002602001015183600181518110610a9e57fe5b602002602001015184600281518110610ab357fe5b602002602001015184604051602001610acf9493929190612382565b604051602081830303815290604052604051610aeb9190612451565b602060405180830381855afa158015610b08573d6000803e3d6000fd5b5050506040513d601f19601f82011682018060405250810190610b2b9190611de6565b9250505095945050505050565b600460009054906101000a900473ffffffffffffffffffffffffffffffffffffffff1681565b60075481565b600560009054906101000a900473ffffffffffffffffffffffffffffffffffffffff1673ffffffffffffffffffffffffffffffffffffffff1663621e9ec0858585856040518563ffffffff1660e01b8152600401610bc59493929190612582565b60206040518083038186803b158015610bdd57600080fd5b505afa158015610bf1573d6000803e3d6000fd5b505050506040513d601f19601f82011682018060405250810190610c159190611dbd565b610c54576040517f08c379a0000000000000000000000000000000000000000000000000000000008152600401610c4b90612614565b60405180910390fd5b610c5f888888611250565b610c9e576040517f08c379a0000000000000000000000000000000000000000000000000000000008152600401610c9590612654565b60405180910390fd5b6000610cad8a878a8a8d6108ec565b90507feef2e5ac6891c050b573d250673c404a0633142d7e2d873af23990c8eaf551e181604051610cde91906125c9565b60405180910390a160005b8a51811015610d98577f58855b9e295a2fced82e30cb3ee417af2f11ba371d8cd079a06a8695a817bf8c8b8281518110610d1f57fe5b6020026020010151606001518c8381518110610d3757fe5b6020026020010151600001518d8481518110610d4f57fe5b6020026020010151602001518e8581518110610d6757fe5b602002602001015160400151604051610d83949392919061253d565b60405180910390a18080600101915050610ce9565b5085600081905550610da86113ea565b50505050505050505050565b60005481565b60028181548110610dca57600080fd5b906000526020600020016000915054906101000a900473ffffffffffffffffffffffffffffffffffffffff1681565b6000826000806000610e1684610e1187868686610f3b565b610fcc565b610e55576040517f08c379a0000000000000000000000000000000000000000000000000000000008152600401610e4c906126b4565b60405180910390fd5b610e6e620f42408767ffffffffffffffff16023361115e565b610e7757600080fd5b610e8e87610e893360008a6001610f3b565b610fe3565b7f58855b9e295a2fced82e30cb3ee417af2f11ba371d8cd079a06a8695a817bf8c336000886001604051610ec59493929190612498565b60405180910390a150505050505050565b60038181548110610ee657600080fd5b906000526020600020016000915054906101000a900473ffffffffffffffffffffffffffffffffffffffff1681565b600160009054906101000a900473ffffffffffffffffffffffffffffffffffffffff1681565b600080600060a01b905060006002878388888886604051602001610f64969594939291906122e6565b604051602081830303815290604052604051610f809190612451565b602060405180830381855afa158015610f9d573d6000803e3d6000fd5b5050506040513d601f19601f82011682018060405250810190610fc09190611de6565b92505050949350505050565b60008054610fda84846115aa565b14905092915050565b610fed82826115aa565b6000819055505050565b6000808273ffffffffffffffffffffffffffffffffffffffff168460405161101e90612468565b60006040518083038185875af1925050503d806000811461105b576040519150601f19603f3d011682016040523d82523d6000602084013e611060565b606091505b505090508091505092915050565b60007fe8d947d7ebdd7b8b8fa2ad2022c7591418ac32d8c29c5f8a8fc9de52ffa540928360405161109f91906126f4565b60405180910390a1600460009054906101000a900473ffffffffffffffffffffffffffffffffffffffff1673ffffffffffffffffffffffffffffffffffffffff1663a9059cbb83856040518363ffffffff1660e01b8152600401611104929190612514565b602060405180830381600087803b15801561111e57600080fd5b505af1158015611132573d6000803e3d6000fd5b505050506040513d601f19601f820116820180604052508101906111569190611dbd565b905092915050565b60007fe8d947d7ebdd7b8b8fa2ad2022c7591418ac32d8c29c5f8a8fc9de52ffa540928360405161118f91906126f4565b60405180910390a1600460009054906101000a900473ffffffffffffffffffffffffffffffffffffffff1673ffffffffffffffffffffffffffffffffffffffff166323b872dd8330866040518463ffffffff1660e01b81526004016111f6939291906124dd565b602060405180830381600087803b15801561121057600080fd5b505af1158015611224573d6000803e3d6000fd5b505050506040513d601f19601f820116820180604052508101906112489190611dbd565b905092915050565b6000808467ffffffffffffffff1614156113195761127d620f42408367ffffffffffffffff16023361115e565b6112bc576040517f08c379a00000000000000000000000000000000000000000000000000000000081526004016112b3906126d4565b60405180910390fd5b6112d5620f42408467ffffffffffffffff160233610ff7565b611314576040517f08c379a000000000000000000000000000000000000000000000000000000000815260040161130b90612674565b60405180910390fd5b6113df565b60018467ffffffffffffffff1614156113de578267ffffffffffffffff16620f4240348161134357fe5b041015611385576040517f08c379a000000000000000000000000000000000000000000000000000000000815260040161137c90612694565b60405180910390fd5b61139e620f4240830267ffffffffffffffff163361106e565b6113dd576040517f08c379a00000000000000000000000000000000000000000000000000000000081526004016113d490612634565b60405180910390fd5b5b5b600190509392505050565b6064600160009054906101000a900473ffffffffffffffffffffffffffffffffffffffff1673ffffffffffffffffffffffffffffffffffffffff1663d06ca61f670de0b6b3a764000060026040518363ffffffff1660e01b81526004016114529291906125e4565b60006040518083038186803b15801561146a57600080fd5b505afa15801561147e573d6000803e3d6000fd5b505050506040513d6000823e3d601f19601f820116820180604052508101906114a79190611d7c565b6001815181106114b357fe5b6020026020010151816114c257fe5b046007819055506064600160009054906101000a900473ffffffffffffffffffffffffffffffffffffffff1673ffffffffffffffffffffffffffffffffffffffff1663d06ca61f670de0b6b3a764000060036040518363ffffffff1660e01b81526004016115319291906125e4565b60006040518083038186803b15801561154957600080fd5b505afa15801561155d573d6000803e3d6000fd5b505050506040513d6000823e3d601f19601f820116820180604052508101906115869190611d7c565b60018151811061159257fe5b6020026020010151816115a157fe5b04600881905550565b60008082905060005b84518110156116d55760008582815181106115ca57fe5b6020026020010151905080831161165357600283826040516020016115f0929190612356565b60405160208183030381529060405260405161160c9190612451565b602060405180830381855afa158015611629573d6000803e3d6000fd5b5050506040513d601f19601f8201168201806040525081019061164c9190611de6565b92506116c7565b60028184604051602001611668929190612356565b6040516020818303038152906040526040516116849190612451565b602060405180830381855afa1580156116a1573d6000803e3d6000fd5b5050506040513d601f19601f820116820180604052508101906116c49190611de6565b92505b5080806001019150506115b3565b508091505092915050565b60006116f36116ee8461275b565b61272a565b9050808382526020820190508285602086028201111561171257600080fd5b60005b8581101561174257816117288882611992565b845260208401935060208301925050600181019050611715565b5050509392505050565b600061175f61175a84612787565b61272a565b9050808382526020820190508285608086028201111561177e57600080fd5b60005b858110156117ae578161179488826119bc565b845260208401935060808301925050600181019050611781565b5050509392505050565b60006117cb6117c6846127b3565b61272a565b905080828560208602820111156117e157600080fd5b60005b8581101561181157816117f78882611a30565b8452602084019350602083019250506001810190506117e4565b5050509392505050565b600061182e611829846127d9565b61272a565b9050808382526020820190508285602086028201111561184d57600080fd5b60005b8581101561187d57816118638882611a45565b845260208401935060208301925050600181019050611850565b5050509392505050565b60008135905061189681612ac7565b92915050565b6000819050826040600202820111156118b457600080fd5b92915050565b600082601f8301126118cb57600080fd5b81356118db8482602086016116e0565b91505092915050565b600082601f8301126118f557600080fd5b813561190584826020860161174c565b91505092915050565b60008190508260206002028201111561192657600080fd5b92915050565b600082601f83011261193d57600080fd5b600261194a8482856117b8565b91505092915050565b600082601f83011261196457600080fd5b815161197484826020860161181b565b91505092915050565b60008151905061198c81612ade565b92915050565b6000813590506119a181612af5565b92915050565b6000815190506119b681612af5565b92915050565b6000608082840312156119ce57600080fd5b6119d8608061272a565b905060006119e884828501611a5a565b60008301525060206119fc84828501611a5a565b6020830152506040611a1084828501611a5a565b6040830152506060611a2484828501611887565b60608301525092915050565b600081359050611a3f81612b0c565b92915050565b600081519050611a5481612b0c565b92915050565b600081359050611a6981612b23565b92915050565b600060208284031215611a8157600080fd5b600082013567ffffffffffffffff811115611a9b57600080fd5b611aa7848285016118ba565b91505092915050565b60008060408385031215611ac357600080fd5b600083013567ffffffffffffffff811115611add57600080fd5b611ae9858286016118ba565b9250506020611afa85828601611a5a565b9150509250929050565b60008060008060808587031215611b1a57600080fd5b600085013567ffffffffffffffff811115611b3457600080fd5b611b40878288016118ba565b9450506020611b5187828801611a5a565b9350506040611b6287828801611a5a565b9250506060611b7387828801611a5a565b91505092959194509250565b600080600080600060a08688031215611b9757600080fd5b600086013567ffffffffffffffff811115611bb157600080fd5b611bbd888289016118ba565b9550506020611bce88828901611a5a565b9450506040611bdf88828901611a5a565b9350506060611bf088828901611a5a565b9250506080611c0188828901611a5a565b9150509295509295909350565b600080600080600060a08688031215611c2657600080fd5b600086013567ffffffffffffffff811115611c4057600080fd5b611c4c888289016118e4565b9550506020611c5d88828901611992565b9450506040611c6e88828901611a5a565b9350506060611c7f88828901611a5a565b9250506080611c9088828901611a5a565b9150509295509295909350565b60008060008060008060008060006101e08a8c031215611cbc57600080fd5b60008a013567ffffffffffffffff811115611cd657600080fd5b611ce28c828d016118e4565b9950506020611cf38c828d01611a5a565b9850506040611d048c828d01611a5a565b9750506060611d158c828d01611a5a565b9650506080611d268c828d01611992565b95505060a0611d378c828d0161190e565b94505060e0611d488c828d0161189c565b935050610160611d5a8c828d0161190e565b9250506101a0611d6c8c828d0161192c565b9150509295985092959850929598565b600060208284031215611d8e57600080fd5b600082015167ffffffffffffffff811115611da857600080fd5b611db484828501611953565b91505092915050565b600060208284031215611dcf57600080fd5b6000611ddd8482850161197d565b91505092915050565b600060208284031215611df857600080fd5b6000611e06848285016119a7565b91505092915050565b600060208284031215611e2157600080fd5b6000611e2f84828501611a30565b91505092915050565b6000611e448383611e8f565b60208301905092915050565b6000611e5c8383611f88565b60408301905092915050565b6000611e74838361227c565b60208301905092915050565b611e8981612981565b82525050565b611e98816128ef565b82525050565b611ea7816128ef565b82525050565b611ebe611eb9826128ef565b612a37565b82525050565b6000611ecf8261282e565b611ed98185612881565b9350611ee483612805565b8060005b83811015611f1c57611ef982612a8d565b611f038882611e38565b9750611f0e8361285a565b925050600181019050611ee8565b5085935050505092915050565b611f3281612839565b611f3c8184612892565b9250611f478261281a565b8060005b83811015611f8057611f5d82846128c4565b611f678782611e50565b9650611f7283612867565b925050600181019050611f4b565b505050505050565b611f94604083836129db565b5050565b611fa4604083836129db565b5050565b611fb181612844565b611fbb818461289d565b9250611fc682612824565b8060005b83811015611ff7578151611fde8782611e68565b9650611fe983612874565b925050600181019050611fca565b505050505050565b61201061200b8261290d565b612a49565b82525050565b61201f81612939565b82525050565b61203661203182612939565b612a53565b82525050565b60006120478261284f565b61205181856128a8565b93506120618185602086016129ea565b80840191505092915050565b61207681612993565b82525050565b6000612089601a836128b3565b91507f50726f6f6620766572696669636174696f6e206661696c6564210000000000006000830152602082019050919050565b60006120c9601f836128b3565b91507f546f6b656e207061796d656e7420636f756c646e27742062652073656e7421006000830152602082019050919050565b6000612109601a836128b3565b91507f5472616e736163746f72207061796d656e74206661696c6564210000000000006000830152602082019050919050565b6000612149601d836128b3565b91507f457468207061796d656e7420636f756c646e27742062652073656e74210000006000830152602082019050919050565b60006121896020836128b3565b91507f416d6f756e74206f662045746820726563656976656420746f20736d616c6c216000830152602082019050919050565b60006121c96026836128b3565b91507f42616c616e6365206d65726b6c6520636f756c646e277420626520726570726f60008301527f64756365642100000000000000000000000000000000000000000000000000006020830152604082019050919050565b600061222f601c836128b3565b91507f546f6b656e7320636f756c646e277420626520726563656976656421000000006000830152602082019050919050565b600061226f6000836128a8565b9150600082019050919050565b61228581612963565b82525050565b61229481612963565b82525050565b6122ab6122a682612963565b612a6f565b82525050565b6122ba816129c9565b82525050565b6122c98161296d565b82525050565b6122e06122db8261296d565b612a79565b82525050565b60006122f28289611ead565b6014820191506123028288611fff565b600c8201915061231282876122cf565b60088201915061232282866122cf565b60088201915061233282856122cf565b60088201915061234282846122cf565b600882019150819050979650505050505050565b60006123628285612025565b6020820191506123728284612025565b6020820191508190509392505050565b600061238e8287612025565b60208201915061239e8286612025565b6020820191506123ae8285612025565b6020820191506123be8284612025565b60208201915081905095945050505050565b60006123dc828a612025565b6020820191506123ec8289612025565b6020820191506123fc82886122cf565b60088201915061240c82876122cf565b60088201915061241c82866122cf565b60088201915061242c82856122cf565b60088201915061243c828461229a565b60208201915081905098975050505050505050565b600061245d828461203c565b915081905092915050565b600061247382612262565b9150819050919050565b60006020820190506124926000830184611e9e565b92915050565b60006080820190506124ad6000830187611e80565b6124ba60208301866122c0565b6124c760408301856122c0565b6124d460608301846122c0565b95945050505050565b60006060820190506124f26000830186611e9e565b6124ff6020830185611e9e565b61250c604083018461228b565b949350505050565b60006040820190506125296000830185611e9e565b612536602083018461228b565b9392505050565b60006080820190506125526000830187611e9e565b61255f60208301866122c0565b61256c60408301856122c0565b61257960608301846122c0565b95945050505050565b6000610140820190506125986000830187611f98565b6125a56040830186611f29565b6125b260c0830185611f98565b6125c0610100830184611fa8565b95945050505050565b60006020820190506125de6000830184612016565b92915050565b60006040820190506125f9600083018561206d565b818103602083015261260b8184611ec4565b90509392505050565b6000602082019050818103600083015261262d8161207c565b9050919050565b6000602082019050818103600083015261264d816120bc565b9050919050565b6000602082019050818103600083015261266d816120fc565b9050919050565b6000602082019050818103600083015261268d8161213c565b9050919050565b600060208201905081810360008301526126ad8161217c565b9050919050565b600060208201905081810360008301526126cd816121bc565b9050919050565b600060208201905081810360008301526126ed81612222565b9050919050565b6000602082019050612709600083018461228b565b92915050565b600060208201905061272460008301846122b1565b92915050565b6000604051905081810181811067ffffffffffffffff8211171561275157612750612a8b565b5b8060405250919050565b600067ffffffffffffffff82111561277657612775612a8b565b5b602082029050602081019050919050565b600067ffffffffffffffff8211156127a2576127a1612a8b565b5b602082029050602081019050919050565b600067ffffffffffffffff8211156127ce576127cd612a8b565b5b602082029050919050565b600067ffffffffffffffff8211156127f4576127f3612a8b565b5b602082029050602081019050919050565b60008190508160005260206000209050919050565b6000819050919050565b6000819050919050565b600081549050919050565b600060029050919050565b600060029050919050565b600081519050919050565b6000600182019050919050565b6000604082019050919050565b6000602082019050919050565b600082825260208201905092915050565b600081905092915050565b600081905092915050565b600081905092915050565b600082825260208201905092915050565b600082905092915050565b600073ffffffffffffffffffffffffffffffffffffffff82169050919050565b60006128fa82612943565b9050919050565b60008115159050919050565b60007fffffffffffffffffffffffff000000000000000000000000000000000000000082169050919050565b6000819050919050565b600073ffffffffffffffffffffffffffffffffffffffff82169050919050565b6000819050919050565b600067ffffffffffffffff82169050919050565b600061298c826129a5565b9050919050565b600061299e82612963565b9050919050565b60006129b0826129b7565b9050919050565b60006129c282612943565b9050919050565b60006129d48261296d565b9050919050565b82818337600083830152505050565b60005b83811015612a085780820151818401526020810190506129ed565b83811115612a17576000848401525b50505050565b6000612a30612a2b83612aba565b6128cf565b9050919050565b6000612a4282612a5d565b9050919050565b6000819050919050565b6000819050919050565b6000612a6882612aad565b9050919050565b6000819050919050565b6000612a8482612aa0565b9050919050565bfe5b6000612a998254612a1d565b9050919050565b60008160c01b9050919050565b60008160601b9050919050565b60008160001c9050919050565b612ad0816128ef565b8114612adb57600080fd5b50565b612ae781612901565b8114612af257600080fd5b50565b612afe81612939565b8114612b0957600080fd5b50565b612b1581612963565b8114612b2057600080fd5b50565b612b2c8161296d565b8114612b3757600080fd5b5056fea26469706673582212204329aae64c169d903bda14ee5c80f93c07b2ebe1f31ee6591f3f5389ceae49ba64736f6c63430007060033",
  "immutableReferences": {},
  "source": "// SPDX-License-Identifier: MIT\npragma experimental ABIEncoderV2;\npragma solidity ^0.7.6;\nimport \"./interface/IERC20.sol\";\nimport \"./interface/IUniswapV2Router02.sol\";\nimport \"./verifier.sol\";\nimport \"./interface/IZKSwap.sol\";\n\ncontract ZkSwap {\n\n\tbytes32 public balances = 0x506d86582d252405b840018792cad2bf1259f1ef5aa5f887e13cb2f0094f51e1;\n\taddress public router = 0x7a250d5630B4cF539739dF2C5dAcb4c659F2488D;\n\taddress[] public ethToTokenPath = [0xc778417E063141139Fce010982780140Aa0cD5Ab, 0xb87241aAA3E8991C6922E830B61722838cF130fb];\n\taddress[] public tokenToEthPath = [0xb87241aAA3E8991C6922E830B61722838cF130fb, 0xc778417E063141139Fce010982780140Aa0cD5Ab];\n\taddress public erc20;\n\taddress public verifier;\n\n\tuint private tradePoolExpiration; // variable used for tracking blocknumber for trade pool sealing;\n\tuint256 public ethToToken = 0;\n\tuint256 public tokenToEth = 0;\n\n\tmodifier canUpdateBalance(address sender, bytes32[] memory balanceProof, uint64 ethAmount, uint64 tokenAmount, uint64 nonce)\n\t{\n \t\trequire(verifyBalanceMerkle(balanceProof, hashBalance(sender, ethAmount, tokenAmount, nonce)), \"Balance merkle couldn't be reproduced!\"); // checks if passed balance amount is correct\n\t\t_;\n\t}\n\n\tconstructor(address ercAddr, address verifierAddr)\n    {\n\t\terc20 = ercAddr;\n\t\tverifier = verifierAddr;\n\t\tsetTokenAmount();\n\t}\n\n\tevent BalanceUpdate(address _from, uint64 ethAmount, uint64 tokenAmount, uint64 nonce);\n\tevent Success(bytes32 yeah);\n\tevent Balance(uint amount);\n\n\tfunction verifyTrade(\n\t\tSharedTypes.Balance[] memory incomingBalances,\n\t\tuint64 direction,\n\t\tuint64 deltaEth,\n\t\tuint64 deltaToken,\n\t\tbytes32 newRoot,\n\t\tuint[2] calldata a,\n\t\tuint[2][2] calldata b,\n\t\tuint[2] calldata c, \n\t\tuint[2] memory dataHash\n\t)\n\t\texternal\n\t\tpayable\n\t{\t\n\t\trequire(Verifier(verifier).verifyTx(a, b, c, dataHash), \"Proof verification failed!\"); // passes\n\t\trequire(handleTransactorPayment(direction, deltaEth, deltaToken), \"Transactor payment failed!\"); // passes\n\t\tbytes32 result = hashTradeData(incomingBalances, newRoot, deltaEth, deltaToken, direction);\n\t\temit Success(result);\n\t\t// require(concatHashes(dataHash[0], dataHash[1]) == result, \"Trade data check failed!\");\n\t\t// emit Success(checkTradeData(incomingBalances, concatHashes(dataHash[0], dataHash[1]), balances, newRoot));\n\t\tfor(uint i = 0; i < incomingBalances.length; i++) {\n\t\t\temit BalanceUpdate(incomingBalances[i].from, incomingBalances[i].ethAmount, incomingBalances[i].tokenAmount, incomingBalances[i].nonce); // doesn't fire\n\t\t}\n\t\tbalances = newRoot; // reassigns\n\t\tsetTokenAmount(); // is called and updates\n\t}\n\t\t\n\n\tfunction hashTradeData(SharedTypes.Balance[] memory incomingBalances, bytes32 newRoot, uint64 deltaEth, uint64 deltaToken, uint64 direction) // reimplement for dynamic array size\n\t\tpublic\n\t\treturns (bytes32)\n\t{\t\n\t\tbytes32[] memory _hashes = new bytes32[](3);\n\t\tfor(uint i = 0; i < 3; i++){\n\t\t\t_hashes[i] = hashBalance(incomingBalances[i].from, incomingBalances[i].ethAmount, incomingBalances[i].tokenAmount, incomingBalances[i].nonce);\n\t\t}\n\t\tbytes32 rootPrice = sha256(abi.encodePacked(balances, newRoot, uint64(ethToToken / 1000000), uint64(tokenToEth / 1000000), deltaEth, deltaToken, uint256(direction)));\n\t\treturn sha256(abi.encodePacked(_hashes[0], _hashes[1],_hashes[2], rootPrice)); //Hacky, last trade gets hashed twice for ZoKrates compatibility\n\t}\n\n\tfunction handleTransactorPayment(uint64 direction, uint64 deltaEth, uint64 deltaToken)\n\t\tprivate\n\t\treturns (bool)\n\t{\n\t\tif(direction == 0) { // Receiving tokens\n\t\t\trequire(_receiveToken(uint(deltaToken) * 1000000, msg.sender), \"Tokens couldn't be received!\");\n\t\t\trequire(_sendEth(uint(deltaEth) * 1000000, payable(msg.sender)), \"Eth payment couldn't be sent!\");\n\t\t} else if(direction == 1) { // receiving ETH\n\t\t\trequire((msg.value / 1000000) >= deltaEth, \"Amount of Eth received to small!\");\n\t\t\trequire(_sendToken(deltaToken * 1000000, msg.sender), \"Token payment couldn't be sent!\");\n\t\t}\n\t\treturn true;\n\t}\n\n\tfunction setTokenAmount()\n\t\tprivate\n\t{\n\t\t//No slipage defined yet;\n\t\tethToToken = IUniswapV2Router02(router).getAmountsOut(1000000000000000000, ethToTokenPath)[1] / 100;\n\t\ttokenToEth = IUniswapV2Router02(router).getAmountsOut(1000000000000000000, tokenToEthPath)[1] / 100;\n\t}\n\n\tfunction _sendEth(uint amountWei, address payable _to)\n\t\tprivate\n\t\treturns (bool)\n\t{\n\t\t(bool sent, ) = _to.call{value: amountWei}(\"\");\n        return sent;\n\t}\n\n\tfunction _sendToken(uint amountWei, address _to)\n\t\tprivate\n\t\treturns (bool)\n\t{\n\t\temit Balance(amountWei);\n\t\treturn IERC20(erc20).transfer(_to, amountWei);\n\t}\n\n\tfunction _receiveToken(uint amountWei, address sender)\n\t\tprivate\n\t\treturns (bool)\n\t{\n\t\temit Balance(amountWei);\n\t\treturn IERC20(erc20).transferFrom(sender, address(this), amountWei);\n\t}\n\n\tfunction firstDepositEth(bytes32[] memory balanceProof)\n\t\tpayable\n\t\texternal\n\t\tcanUpdateBalance(0x0000000000000000000000000000000000000000, balanceProof, uint64(0), uint64(0), uint64(0)) // ensures we're taking an empty leaf\n\t{\n\t\tupdateBalanceMerkle(balanceProof, hashBalance(msg.sender, uint64(msg.value / 1000000), uint64(0), uint64(1)));\n\t\temit BalanceUpdate(msg.sender, uint64((msg.value / 1000000)), uint64(0), uint64(1));\n\t}\n\n\tfunction depositEth(bytes32[] memory balanceProof, uint64 ethAmount, uint64 tokenAmount, uint64 nonce)\n\t\tpayable\n\t\tpublic\n\t\tcanUpdateBalance(msg.sender, balanceProof, ethAmount, tokenAmount, nonce)\n\t{\n\t\tupdateBalanceMerkle(balanceProof, hashBalance(msg.sender, uint64(ethAmount + (msg.value / 1000000)), tokenAmount, nonce + 1));\n\t\temit BalanceUpdate(msg.sender, uint64(ethAmount + (msg.value / 1000000)), tokenAmount, nonce + 1);\n\t}\n\n\tfunction firstDepositERC20(bytes32[] memory balanceProof, uint64 depositAmount)\n\t\texternal\n\t\tcanUpdateBalance(0x0000000000000000000000000000000000000000, balanceProof, uint64(0), uint64(0), uint64(0)) // ensures we're taking an empty leaf\n\t{\n\t\trequire(_receiveToken(uint(depositAmount) * 1000000, msg.sender));\n\t\tupdateBalanceMerkle(balanceProof, hashBalance(msg.sender, uint64(0), depositAmount, uint64(1)));\n\t\temit BalanceUpdate(msg.sender, uint64(0), depositAmount, uint64(1));\n\t}\n\n\tfunction depositERC20(bytes32[] memory balanceProof, uint64 ethAmount, uint64 tokenAmount, uint64 nonce, uint64 depositAmount)\n\t\texternal\n\t\tcanUpdateBalance(msg.sender, balanceProof, ethAmount, tokenAmount, nonce)\n\t{\n\t\temit Balance(depositAmount);\n\t\trequire(_receiveToken(uint(depositAmount) * 1000000, msg.sender));\n\t\tupdateBalanceMerkle(balanceProof, hashBalance(msg.sender, ethAmount, tokenAmount + depositAmount, nonce + 1));\n\t\temit BalanceUpdate(msg.sender, ethAmount, tokenAmount + depositAmount, nonce + 1);\n\t}\n\n\tfunction withdrawEth(bytes32[] memory balanceProof, uint64 ethAmount, uint64 tokenAmount, uint64 nonce, uint64 withdrawAmount)\n\t\texternal\n\t\tcanUpdateBalance(msg.sender, balanceProof, ethAmount, tokenAmount, nonce)\n\t{\n\t\trequire(ethAmount >= withdrawAmount);\n\t\tupdateBalanceMerkle(balanceProof, hashBalance(msg.sender, ethAmount - withdrawAmount, tokenAmount, nonce + 1));\n\t\temit BalanceUpdate(msg.sender, ethAmount - withdrawAmount, tokenAmount, nonce + 1);\n\t\trequire(_sendEth(uint(withdrawAmount) * 1000000, payable(msg.sender)));\n\t}\n\n\tfunction withdrawERC20(bytes32[] memory balanceProof, uint64 ethAmount, uint64 tokenAmount, uint64 nonce, uint64 withdrawAmount)\n\t\texternal\n\t\tcanUpdateBalance(msg.sender, balanceProof, ethAmount, tokenAmount, nonce)\n\t{\n\t\trequire(tokenAmount >= withdrawAmount);\n\t\temit Balance(withdrawAmount);\n\t\trequire(_sendToken(uint(withdrawAmount) * 1000000, msg.sender));\n\t\tupdateBalanceMerkle(balanceProof, hashBalance(msg.sender, ethAmount, tokenAmount - withdrawAmount, nonce + 1));\n\t\temit BalanceUpdate(msg.sender, ethAmount, tokenAmount - withdrawAmount, nonce + 1);\n\t}\n\n\tfunction hashBalance(address sender, uint64 ethAmount, uint64 tokenAmount, uint64 nonce)\n\t\tprivate\n\t\tpure\n\t\treturns (bytes32)\n\t{\n\t\tbytes12 padAddress = 0x000000000000000000000000;\n\t\tuint64 padAmount = 0;\n\t\treturn sha256(abi.encodePacked(sender, padAddress, ethAmount, tokenAmount, nonce, padAmount));\n\t}\n\n\tfunction verifyBalanceMerkle(bytes32[] memory proof, bytes32 leaf) \n\t\tinternal \n\t\tview\n\t\treturns (bool) \n\t{\n        return computeMerkle(proof, leaf) == balances;\n    }\n\n\tfunction updateBalanceMerkle(bytes32[] memory proof, bytes32 leaf)\n\t\tinternal\n\t{\n\n\t\tbalances = computeMerkle(proof, leaf);\n\t}\n\n\tfunction computeMerkle(bytes32[] memory proof, bytes32 leaf) \n\t\tinternal\n\t\tpure \n\t\treturns (bytes32) \n\t{\n\t\tbytes32 computedHash = leaf;\n\n        for (uint256 i = 0; i < proof.length; i++) {\n            bytes32 proofElement = proof[i];\n\n            if (computedHash <= proofElement) {\n                computedHash = sha256(abi.encodePacked(computedHash, proofElement));\n            } else {\n                computedHash = sha256(abi.encodePacked(proofElement, computedHash));\n            }\n        }\n\t\treturn computedHash;\n\t}\n\t\n\tfunction concatHashes(uint a, uint b)\n        private\n\t\tpure\n        returns (bytes32)\n    {\n        uint256 result; \n        result = result | a << 128;\n\t\tresult = result | b;\n       return bytes32(result);\n    }\n}",
  "sourcePath": "/Users/paul/Documents/projects/bachelor/implementation/contracts/contracts/ZKSwap.sol",
  "compiler": {
    "name": "solc",
    "version": "0.7.6+commit.7338295f.Emscripten.clang"
  },
  "schemaVersion": "3.3.3",
  "updatedAt": "2021-04-28T14:23:21.624Z",
  "networkType": "ethereum",
  "devdoc": {
    "kind": "dev",
    "methods": {},
    "version": 1
  },
  "userdoc": {
    "kind": "user",
    "methods": {},
    "version": 1
  }
}